:100000000C94AF010C941A060C9447060C94D7017B
:100010000C94D7010C94D7010C94D7010C94D70100
:100020000C94D7010C94D7010C94210D0C94810CE5
:100030000C94CB0D0C94D7010C94D7010C94D701E0
:100040000C9474060C94D7010C94700A0C94AA0AB0
:100050000C94D7010C94D7010C94D7010C94D701C0
:100060000C94D7010C94D70153656E64696E6720B8
:100070007061636B6574206661696C6564006469B6
:100080007361626C656400656E61626C65640064D6
:1000900065627567206D65737361676573200055D0
:1000A000534232524600284637206B6579207769E3
:1000B00074682067746B7465726D2920746F206595
:1000C0006E61626C652F64697361626C6520646542
:1000D000627567206F757470757400557362327243
:1000E0006620646562756720706F72742061742089
:1000F0003139323030206270732E20417373657253
:1001000074204454522000556E6B6E6F776E2063DE
:100110006F6D6D616E642000536F667477617265F8
:1001200020726573657420636F6D6D616E642C2041
:10013000626164206C656E677468203A2000536FBA
:1001400066747761726520726573657400446F6EC2
:10015000650053656E64696E672057616B65557005
:1001600020627572737420313035306D73005570B4
:100170006C6F616420636F646520636F6D6D616E89
:10018000642C20626164206C656E677468203A207C
:100190000053776974636820746F2075706C6F61A9
:1001A00064206D6F646500557362327266206D6FF6
:1001B00064756C65206661696C656420746F20727B
:1001C000657365740055534220746F205246205267
:1001D00065736574004D43552072657365742063C3
:1001E0006F6D6D616E642077726F6E672073697AD0
:1001F00065203A200053696C656E7420636F6D6DE5
:10020000616E642C20626164206C656E6774682086
:100210003A200053696C656E7420666F7220353029
:100220006D73006368616E6E656C3D004368616E5E
:100230006E656C20636F6D6D616E642077726F6E9A
:10024000672073697A65203A200063633131303169
:100250002077726F6E6720636D642073697A652002
:100260000053796E63776F7264203D20004375738D
:10027000746F6D20636F6D6D616E642C20626164BC
:10028000206C656E677468203A200043433131303A
:1002900031207265676973746572203D2000206F9C
:1002A0007220002C20627574206578706563746517
:1002B0006420003A2050726F746F636F6C20657217
:1002C000726F722E206170705F6964783D006F6B91
:1002D000206E65787420706B7400526573656E646F
:1002E00000706B74206F7574203A206964783D004B
:1002F00053617661696C3D0075706C6F61643A2082
:1003000054696D656F7574000000000700020100FC
:1003100000030406000000000000000001020408C1
:10032000102040800102040810200102040810205F
:10033000040404040404040402020202020203038B
:100340000303030300000000250028002B00000029
:100350000000240027002A00F2016A0B0702112482
:100360001FBECFEFD8E0DEBFCDBF11E0A0E0B1E00F
:10037000ECE3F4E202C005900D92AC36B107D9F778
:1003800022E0ACE6B1E001C01D92AE3DB207E1F75C
:1003900011E0CEEAD1E004C02197FE010E94FC11D9
:1003A000CC3AD107C9F70E9488040C94BF110C9471
:1003B000000081E08093820108956115710579F054
:1003C000FB0101900020E9F73197AF01461B570B65
:1003D000DC01ED91FC910280F381E02D099480E035
:1003E00090E008958EE791E00E942B0EE2E7F1E0A5
:1003F0001382128288EE93E0A0E0B0E084839583BC
:10040000A683B78380E691E091838083089580E698
:1004100091E090937301809372010C94170E80E920
:1004200091E00E94030A0196D1F708958F929F925E
:10043000AF92BF92CF92DF92EF92FF920F931F93F2
:10044000CF93DF93CDB7DEB7C058D1090FB6F8947C
:10045000DEBF0FBECDBF6C010E94BE064B015C012A
:1004600064E180E991E00E942E0AE12CFF24F394DC
:100470000E94BE06DC01CB0188199909AA09BB09B3
:1004800085369105A105B10570F04C9906C068EF5D
:1004900072E082E791E00E94180866E180E991E04D
:1004A0000E942E0AEFC0E110EAC080E991E00E94AC
:1004B000D70980970CF441C040E250E0BE016F5B69
:1004C0007F4F80E991E00E94B10981E2C816D10412
:1004D00028F064E180E991E00E942E0A4C9911C055
:1004E00060EF72E082E791E00E94180880E991E0F5
:1004F0000E94D7094AE050E0BC0182E791E00E94E7
:100500002309FF20B9F040E2BE016F5B7F4F8EE709
:1005100091E00E941D104C990DC061EE72E082E7DF
:1005200091E00E9418084AE050E0B60182E791E0AD
:100530000E946B09EE24E394F12C809182018823C0
:1005400009F496CFBE016F5F7F4F8EE791E00E9466
:10055000461110928201833009F07FC080918101A1
:10056000882309F47AC00E94BE064B015C01898190
:10057000843009F061C08A810B8110E0102F0027C0
:10058000080F111D0C151D05B1F440E2BE016F5B93
:100590007F4F8EE791E00E941D1065E180E991E0B8
:1005A0000E942E0A4C9962C06AED72E082E791E0E7
:1005B0000E9458085BC0760180E2E81AF1080E1527
:1005C0001F0549F44C9954C06EEC72E082E791E04B
:1005D0000E9458084DC04C992FC04AE050E06CE88A
:1005E00070E082E791E00E941C0963EB72E082E711
:1005F00091E00E9418084AE050E0B80182E791E0DB
:100600000E94650963EA72E082E791E00E9418089F
:100610004AE050E0B70182E791E00E9465096EE987
:1006200072E082E791E00E9418084AE050E0B601CB
:1006300082E791E00E9465090E940F0266E180E96D
:1006400091E00E942E0A43E050E0BE016F5F7F4FB1
:1006500080E991E00E94F00715C04C990DC060E060
:1006600071E082E791E00E943B0806C0F12C05C0D2
:10067000E12CFF24F39401C086016801F9CEF1104A
:1006800042CF5BCFC058DF4F0FB6F894DEBF0FBE2E
:10069000CDBFDF91CF911F910F91FF90EF90DF9031
:1006A000CF90BF90AF909F908F900895EF92FF9260
:1006B0000F931F93CF93DF931F92CDB7DEB77C01CB
:1006C000162FFC018081813509F479C048F481340A
:1006D000D1F1833409F460C0803309F0FEC00FC04B
:1006E000853509F4A0C020F4823509F482C0F5C034
:1006F000873509F4B2C08A3509F4D2C0EEC0613042
:1007000091F44C99FDC06BE872E082E791E00E94A1
:10071000180840E862E18EE791E00E94800E40E117
:1007200050E0682F0BC04C99EBC06DE672E082E799
:1007300091E00E9418084AE050E0612F82E791E0C2
:100740000E944E09DDC0633011F5F70142816181DD
:100750008EE791E00E94C60E4C99D2C061E672E02D
:1007600082E791E00E9418084AE050E0F7016181B9
:1007700082E791E00E94470960E171E082E791E041
:100780000E943B084AE050E0F7016281D7CF4C99C4
:10079000B7C06AE472E0CBCF623029F04C99B0C0A8
:1007A0006CE272E0C4CFF7011181612F8EE791E016
:1007B0000E94DB0E4C99A4C063E272E0B8CF6130B6
:1007C00099F44C997FC063E172E082E791E00E9466
:1007D00058080E94BE0660936C0170936D0180936F
:1007E0006E0190936F016EC04C998AC065EF71E005
:1007F0009ECF613029F04C9983C065ED71E097CFB1
:100800004C9906C065EC71E082E791E00E945808BF
:1008100040E060E08EE791E00E94C60E5B98539A3C
:1008200067EA71E038C0633099F44C9906C061E919
:1008300071E082E791E00E945808F70121818281EE
:1008400090E0982F8827820F911D0E94160258C0B1
:100850004C9956C06EE671E06ACF623009F050C024
:100860004C9906C062E571E082E791E00E94580869
:10087000F701818189830AE114E020E030E041E062
:10088000BE016F5F7F4F8EE791E00E9486104C990A
:1008900037C06DE471E082E791E00E94580830C0F3
:1008A0006130B1F44C9908C06EE371E082E791E0E9
:1008B0000E9458080E941A0D40E060E08EE791E027
:1008C0000E94C60EE0917001F0917101099518C067
:1008D0004C9916C068E171E02ACF4C9911C067E0CD
:1008E00071E082E791E00E941808412F50E0B701C3
:1008F00082E791E00E94F00782E791E00E944408BD
:100900000F90DF91CF911F910F91FF90EF9008957D
:10091000CF93DF93CDB7DEB7C054D1090FB6F894AB
:10092000DEBF0FBECDBF0E94200762E084E00E94C0
:10093000840740E056E960E070E080E991E00E94C1
:10094000E50A61EA71E080E090E00E94DD0B8EE74D
:1009500091E00E940F1044E067E08EE791E00E9472
:100960002C0E48EE69E38EE791E00E94C60E42E04D
:1009700050E069ED71E080E00E94FA0547E962E12C
:100980008EE791E00E942C0E6BED70E082E791E023
:100990000E94580866EA70E082E791E00E945808D9
:1009A0000E94CA066B017C0165E070E080E090E087
:1009B0000E94EF066FE970E080E991E00E9458081C
:1009C00000E0B12C10E09924939489B18295817054
:1009D00089258017A9F009B10295017009256FE8F2
:1009E00070E082E791E00E9418084C9903C067E824
:1009F00070E002C06EE770E082E791E00E94580864
:100A000080E991E0BB2081F10E94D709892B89F010
:100A100080E991E00E94030AE1E0F0E0EC0FFD1FA5
:100A2000E10FF11D80831F5F103209F065C0B12C0A
:100A30005FC00E94CA06DC01CB018C199D09AE097A
:100A4000BF09813D9740A105B10508F490C011236D
:100A500029F0612FCE0101960E9456030E94CA061A
:100A60006B017C01B12C82C00E94D709892B09F44B
:100A700041C080E991E00E94030AE1E0F0E0EC0F60
:100A8000FD1FE10FF11D80831F5F103219F54C9996
:100A900006C062E171E082E791E00E94DD0140E280
:100AA000BE016F5F7F4F8EE791E00E941D10182FEF
:100AB0004C990BC0882319F06BE171E002C069E129
:100AC00071E082E791E00E94DD014C9911C01111A3
:100AD0000FC089C0153081F445E050E06EE171E04F
:100AE000CE0101960E94C211892B31F4BB24B3942C
:100AF00010E002C0111105C00E94CA066B017C0102
:100B000036C00E94CA06DC01CB018C199D09AE09D2
:100B1000BF09813D9740A105B10548F14C990DC031
:100B200064E271E082E791E00E94DD014AE050E07A
:100B3000612F82E791E00E944709412FBE016F5F5C
:100B40007F4F8EE791E00E941D104C990BC08823C7
:100B500019F06BE171E002C069E171E082E791E0B8
:100B60000E94DD010E94CA066B017C0110E08091A9
:100B70008201882309F429CFBE016F5F7F4F8EE782
:100B800091E00E944611A82E10928201809181016D
:100B90008823C9F0AA2071F04A2D50E0BE016F5F92
:100BA0007F4F80E991E00E94F0074C990ECF69E2F7
:100BB00071E00DC04C9909CF6DE271E082E791E0E0
:100BC0000E946A0802CF4C9900CF64E371E082E78B
:100BD00091E00E94DD014AE050E06A2D82E791E059
:100BE0000E944E09F2CE68E670E082E791E00E9432
:100BF00058087ECF8230E8F4E82FF0E0EE0FFF1FB8
:100C0000ED57FE4F71836083813041F08091690020
:100C10008C7F482B40936900E89A08958091690081
:100C2000440F551F440F551F837F482B4093690085
:100C3000E99A08951F920F920FB60F9211242F93E5
:100C40003F934F935F936F937F938F939F93AF9354
:100C5000BF93EF93FF938091830190918401892B3F
:100C600029F0E0918301F09184010995FF91EF91C2
:100C7000BF91AF919F918F917F916F915F914F91B4
:100C80003F912F910F900FBE0F901F9018951F92BC
:100C90000F920FB60F9211242F933F934F935F93B0
:100CA0006F937F938F939F93AF93BF93EF93FF9334
:100CB0008091850190918601892B29F0E091850131
:100CC000F09186010995FF91EF91BF91AF919F91AE
:100CD0008F917F916F915F914F913F912F910F90E5
:100CE0000FBE0F901F9018951F920F920FB60F9284
:100CF00011242F933F938F939F93AF93BF93809132
:100D0000880190918901A0918A01B0918B01309165
:100D1000870126E0230F2D3720F40296A11DB11D77
:100D200005C029E8230F0396A11DB11D209387015B
:100D30008093880190938901A0938A01B0938B01DD
:100D400080918C0190918D01A0918E01B0918F01C5
:100D50000196A11DB11D80938C0190938D01A093EC
:100D60008E01B0938F01BF91AF919F918F913F9171
:100D70002F910F900FBE0F901F9018952FB7F894DA
:100D8000609188017091890180918A0190918B0115
:100D90002FBF08953FB7F89480918C0190918D01F9
:100DA000A0918E01B0918F0126B5A89B05C02F3F61
:100DB00019F00196A11DB11D3FBFBA2FA92F982F81
:100DC0008827820F911DA11DB11DBC01CD0143E0FB
:100DD000660F771F881F991F4A95D1F70895CF9204
:100DE000DF92EF92FF92CF93DF936B017C010E9421
:100DF000CA06EB01C114D104E104F10479F00E94A8
:100E0000CA066C1B7D0B683E7340A0F381E0C81AD4
:100E1000D108E108F108C851DC4FECCFDF91CF9148
:100E2000FF90EF90DF90CF9008958130910539F0D9
:100E3000029729F0880F991F01970197F1F70895FC
:100E4000789484B5826084BD84B5816084BD85B5A5
:100E5000826085BD85B5816085BDEEE6F0E080816C
:100E600081608083E1E8F0E010828081826080838D
:100E7000808181608083E0E8F0E080818160808310
:100E8000E1EBF0E0808184608083E0EBF0E0808142
:100E900081608083EAE7F0E08081846080838081E4
:100EA000826080838081816080838081806880838C
:100EB0001092C1000895833081F028F4813099F0B8
:100EC0008230A1F008958630A9F08730B9F08430DF
:100ED000D1F4809180008F7D03C0809180008F7756
:100EE00080938000089584B58F7702C084B58F7D8C
:100EF00084BD08958091B0008F7703C08091B000C9
:100F00008F7D8093B0000895CF93DF9390E0FC0134
:100F1000E45EFC4F2491FC01E05DFC4F849188234A
:100F200061F190E0880F991FFC01E25BFC4FC591D5
:100F3000D491FC01EC5BFC4FA591B491611109C007
:100F40009FB7F8948881209582238883EC912E2383
:100F50000BC0623061F49FB7F8943881822F80957E
:100F600083238883EC912E2B2C939FBF06C08FB7D1
:100F7000F894E8812E2B28838FBFDF91CF910895BD
:100F80001F93CF93DF93282F30E0F901E85FFC4FE8
:100F90008491F901E45EFC4FD491F901E05DFC4FCE
:100FA000C491CC23C9F0162F81110E945B07EC2F4E
:100FB000F0E0EE0FFF1FEC5BFC4FA591B4918FB7F3
:100FC000F894111105C09C91ED2FE095E92302C022
:100FD000EC91ED2BEC938FBFDF91CF911F91089592
:100FE000CF92DF92EF92FF920F931F93CF93DF93F5
:100FF0006C01EB017B01E40EF51E00E010E0CE1564
:10100000DF0561F06991D601ED91FC910190F081CD
:10101000E02DC6010995080F191FF1CFC801DF9116
:10102000CF911F910F91FF90EF90DF90CF90089597
:10103000EF92FF920F931F93CF93DF937C01FB01FD
:1010400000E010E06491EF012196662361F0D70182
:10105000ED91FC910190F081E02DC7010995080FF9
:10106000191FFE01EFCFC801DF91CF911F910F91A2
:10107000FF90EF9008950C94DD01DC01ED91FC915F
:101080000190F081E02D09940F931F93CF93DF938C
:10109000EC016DE00E943D088C016AE0CE010E94E7
:1010A0003D08800F911FDF91CF911F910F910895FF
:1010B0000F931F93CF93DF93EC010E9418088C01CC
:1010C000CE010E944408800F911FDF91CF911F91A4
:1010D0000F9108950F931F93CF93DF93EC010E941C
:1010E000DD018C01CE010E944408800F911FDF9129
:1010F000CF911F910F9108958F929F92AF92BF92BF
:10110000CF92DF92EF92FF920F931F93CF93DF93D3
:10111000CDB7DEB7A1970FB6F894DEBF0FBECDBF37
:101120006C01142FE52FCB01022F19A2223008F4F5
:101130000AE07E0121E2E20EF11C802E912CA12C0E
:10114000B12C612F7E2FA50194010E94CF11029F27
:101150001019112481E0E81AF1081A3014F4105D16
:1011600001C0195CF7011083122FE32FCA01232B52
:10117000242B252B31F7B701C6010E94DD01A19672
:101180000FB6F894DEBF0FBECDBFDF91CF911F9198
:101190000F91FF90EF90DF90CF90BF90AF909F9016
:1011A0008F900895CF92DF92EF92FF920F931F934B
:1011B000CF93DF93EC016A017B012115310579F4AE
:1011C000E881F9810190F081E02D642FDF91CF91CA
:1011D0001F910F91FF90EF90DF90CF9009942A30EC
:1011E0003105E9F477FF1AC06DE20E943D088C01D9
:1011F00044275527BA014C195D096E097F092AE079
:10120000CE010E947C08800F911FDF91CF911F912A
:101210000F91FF90EF90DF90CF9008952AE0B701F3
:10122000A601CE01DF91CF911F910F91FF90EF901A
:10123000DF90CF900C947C089A01AB01770F660B7E
:10124000770B0C94D2080F931F93CF93DF93EC018D
:101250009A01AB01770F660B770B0E94D2088C01C5
:10126000CE010E944408800F911FDF91CF911F9102
:101270000F9108952115310541F4DC01ED91FC91A8
:101280000190F081E02D642F09940C947C089A0160
:10129000462F50E060E070E00C943A090F931F93E2
:1012A000CF93DF93EC019A01462F50E060E070E0AD
:1012B0000E943A098C01CE010E944408800F911FC0
:1012C000DF91CF911F910F9108959A01AB0160E0DA
:1012D00070E00C943A090F931F93CF93DF93EC01C6
:1012E0009A01AB0160E070E00E943A098C01CE01E6
:1012F0000E944408800F911FDF91CF911F910F91A1
:1013000008950F931F93CF93DF93EC010E94BE06C5
:10131000688779878A879B87E881F9810680F781CA
:10132000E02DCE01099597FF17C00E94BE060885E3
:1013300019852A853B85DC01CB01801B910BA20B13
:10134000B30B0C811D812E813F8180179107A2076D
:10135000B30710F38FEF9FEFDF91CF911F910F91A4
:101360000895CF92DF92EF92FF920F931F93CF9346
:10137000DF936C017A018B01C0E0D0E0CE15DF0570
:1013800061F0C6010E94810997FF02C07E0105C07D
:10139000F80181938F012196F1CFC701DF91CF91A1
:1013A0001F910F91FF90EF90DF90CF900895FC0177
:1013B00024853585F901E05CFF4F8081918132966B
:1013C00020813181821B930B8F7399270895DC0153
:1013D0001C96ED91FC911D97DF01A05CBF4F2D91F4
:1013E0003C91119712968D919C911197281739076E
:1013F00039F08D919C91E80FF91F808190E008955C
:101400008FEF9FEF0895FC01A485B585FD01E05C99
:10141000FF4F2081318132968081918128173907D1
:1014200079F080819181A80FB91F8C912081318141
:101430002F5F3F4F2F7333273183208390E0089530
:101440008FEF9FEF0895FC0181A1882329F0A489E3
:10145000B5898C9186FFFBCF11A208950F931F933E
:10146000CF93DF93FC01A685B7858D01005C1F4FEC
:10147000E8018881998101968F739927AD014E5BB0
:101480005F4FEA012881398182179307D1F3E80180
:1014900028813981A20FB31F6C93A685B785A05C04
:1014A000BF4F11969C938E93A689B7892C9181E0AA
:1014B00090E0078C02C0880F991F0A94E2F7822BF4
:1014C0008C9381E081A30488F589E02D808180647C
:1014D000808381E090E0DF91CF911F910F9108957B
:1014E0001F920F920FB60F9211242F934F935F9379
:1014F0008F939F93EF93FF938091C00082FD1CC058
:101500002091C600809136029091370201968F7328
:10151000992740913802509139028417950771F04C
:10152000E0913602F0913702EA50FE4F208390930B
:1015300037028093360202C08091C600FF91EF917E
:101540009F918F915F914F912F910F900FBE0F90B0
:101550001F9018951F920F920FB60F9211242F9380
:101560003F938F939F93EF93FF932091F2013091DC
:10157000F3018091F4019091F5012817390731F4B6
:101580008091C1008F7D8093C10014C0E091F4016F
:10159000F091F501EE54FE4F20818091F40190917D
:1015A000F50101968F7399279093F5018093F401CB
:1015B0002093C600FF91EF919F918F913F912F91C2
:1015C0000F900FBE0F901F901895CF92DF92EF9261
:1015D000FF920F931F93CF93DF93EC016A017B017E
:1015E000EC89FD8981E090E008A002C0880F991F76
:1015F0000A94E2F7808360E874E88EE190E0A70146
:1016000096010E94CF1189019A0101501109210907
:1016100031093695279517950795980101151041C1
:1016200008F042C0E889F9893083EA89FB89208380
:1016300019A2EE89FF89408181E090E09C010C8C29
:1016400002C0220F331F0A94E2F7242B2083EE8975
:10165000FF8940819C010D8C02C0220F331F0A9428
:10166000E2F7242B2083EE89FF8940819C010E8CB8
:1016700002C0220F331F0A94E2F7242B2083EE8945
:10168000FF8920810F8C02C0880F991F0A94E2F70E
:10169000809582238083DF91CF911F910F91FF90DE
:1016A000EF90DF90CF900895EC89FD89108260E47F
:1016B00072E48FE090E0A70196010E94CF11DA0159
:1016C000C9010197A109B109B695A7959795879585
:1016D0009C01A8CFE0E9F1E01382128288EE93E04A
:1016E000A0E0B0E084839583A683B78380E591E092
:1016F0009183808386EF91E09587848782EB91E0E8
:101700009787868785EC90E0918B808B84EC90E0C6
:10171000938B828B80EC90E0958B848B81EC90E0B6
:10172000978B868B82EC90E0918F808F86EC90E097
:10173000938F828F84E0848F83E0858F87E0868F0C
:1017400085E0878F81E080A308958091D4029091F5
:10175000D302891769F09F5F903508F090E0E92F78
:10176000F0E0ED57FD4F80819093D30290E0089513
:101770008FEF9FEF08958091D402E091D3028E17EE
:1017800051F0EF5FE03508F0E0E0F0E0ED57FD4F9D
:10179000808190E008958FEF9FEF08955091D402DB
:1017A0004091D302852F90E0242F30E0541710F49D
:1017B000805B9F4F821B930B08959B01AC012136E8
:1017C00088E138074105510530F410926F001092FE
:1017D000800081E825C073E0569547953795279599
:1017E0007A95D1F7213688E138074105510530F463
:1017F00010926F001092800082E812C065E056954A
:101800004795379527956A95D1F7213688E13807AE
:1018100041055105C0F510926F001092800084E8D8
:10182000809381003093DD022093DC02A5E2B0E0DA
:101830000E94F111DC01CB0122E0B695A7959795A6
:1018400087952A95D1F79093D6028093D50262E0CE
:1018500088E00E94840761E089E00E94C00761E09F
:1018600089E00E9484071092DB021092D402109249
:10187000D3021092820210927F0210927E0280E2C6
:1018800086BB80936F00089590917F029F5F943490
:1018900008F090E020917E022917E1F32FB7F89429
:1018A00030918202332341F0E92FF0E0E65CFD4FF6
:1018B000808390937F021DC091E090938202809379
:1018C00081021092800282E086BB80916F0082606C
:1018D00080936F00809180008F7380688093800078
:1018E0008091840090918500409690938900809328
:1018F00088002FBF0895862F0E94440C81E090E05D
:1019000008951F920F920FB60F9211242F933F93B9
:101910004F935F936F937F938F939F93EF93FF9377
:10192000809182026091810220918800309189002B
:101930004091DC025091DD02909180028A30F8F4EF
:10194000240F351F893019F0762F717001C071E0B6
:1019500066958F5F791791F390918000772311F04E
:10196000906C02C09F7390689093800030938900C0
:101970002093880070938002609381024AC0909106
:101980007F02E0917E029E1319C08A3051F48BE0F1
:1019900080938202240F351F3093890020938800A2
:1019A0003AC010928202809180008F7380938000F1
:1019B00080916F008D7F80936F002DC0EF5FE434C6
:1019C00008F0E0E0E0937E02F0E0E65CFD4F9081FD
:1019D0009093810210928002909180009F73906892
:1019E000909380008A3059F48091DC029091DD025E
:1019F000280F391F309389002093880009C08091F7
:101A0000840090918500409690938900809388008F
:101A100081E080938202FF91EF919F918F917F915E
:101A20006F915F914F913F912F910F900FBE0F904B
:101A30001F901895809182028111FCCF08950C941B
:101A40001A0D1F920F920FB60F9211242F933F93EE
:101A50004F935F936F937F938F939F93AF93BF93B6
:101A6000EF93FF9380918600909187004091D90277
:101A700020918100442331F02F7B2093810010922C
:101A8000D90206C020642093810020E82093D90267
:101A90003091DB02311125C041116CC02091D5027B
:101AA0003091D602280F391F30938B0020938A0083
:101AB00024E026BB20916F00246020936F002091CA
:101AC000DC023091DD02820F931F36952795820F3D
:101AD000931F9093D8028093D70281E08093DB021A
:101AE00049C04091D7025091D8026091DC027091B8
:101AF000DD02DB01A095B0952091DA02E091D902D8
:101B0000841B950BA817B90768F126952E2B460F55
:101B1000571F3F5F861B970B3930A0F32093DA02E3
:101B200080916F008B7F80936F008091D4028F5FD4
:101B3000803508F080E09091D302891749F0E82FB2
:101B4000F0E09091DA02ED57FD4F90838093D4023C
:101B5000809181008F7B809381001092D902109236
:101B6000DB0208C02093DA025093D8024093D702D8
:101B70003093DB02FF91EF91BF91AF919F918F91D5
:101B80007F916F915F914F913F912F910F900FBE79
:101B90000F901F9018951F920F920FB60F9211245D
:101BA0002F938F939F93EF93FF9380916F008B7F81
:101BB00080936F00809181008F7B80938100809162
:101BC000DB022091D90220589091DA02893020F46A
:101BD0009695922B8F5FFACF9093DA028091D40280
:101BE0008F5F803508F080E02091D302821739F0B2
:101BF000E82FF0E0ED57FD4F90838093D4021092D0
:101C0000DB02809181008F7B809381001092D9024A
:101C1000FF91EF919F918F912F910F900FBE0F9099
:101C20001F9018958091D3028093D4020895CF938A
:101C3000DF93CFE6D0E088818B7F888388818F7D9A
:101C400088830E94120E0E941A0D88818D7F8883DE
:101C5000DF91CF91089508950F931F93CF93DF9352
:101C60001F92CDB7DEB78C012A981C99FECFC80110
:101C700049830E94B9114981642FC8010E94B9119A
:101C80002A9A0F90DF91CF911F910F910895CF92D3
:101C9000DF92EF92FF920F931F93CF93DF9300D0C9
:101CA000CDB7DEB78C01F22E60642A981C99FECF66
:101CB000C80149835A830E94B9114981E42EC42E78
:101CC0005A81D52E8C2D8E198F1538F4F60161911D
:101CD0006F01C8010E94B911F5CF2A9A0F900F9099
:101CE000DF91CF911F910F91FF90EF90DF90CF90F8
:101CF00008952A981C99FECF0E94B9112A9A089536
:101D0000CF93DF93EC01642B2A981C99FECFCE0170
:101D10000E94B91160E0CE010E94B9112A9ADF91A8
:101D2000CF910895AF92BF92DF92EF92FF920F93FF
:101D30001F93CF93DF931F92CDB7DEB78C01F62EA2
:101D4000E22E642F606C2A981C99FECFC80179831B
:101D50000E94B911DF2CAF2C7981B72E8A2D8D19F5
:101D60008E1540F460E0C8010E94B911F50181931D
:101D70005F01F4CF2A9A0F90DF91CF911F910F91BD
:101D8000FF90EF90DF90BF90AF9008951F93CF9397
:101D9000DF93EC01142F462F64E00E942C0E412F9C
:101DA00065E0CE01DF91CF911F910C942C0E462F50
:101DB00069E00C942C0E462F6AE00C942C0ECF9305
:101DC000DF93EC01613069F06230B1F440E16DE025
:101DD0000E942C0E47EA6EE0CE010E942C0E42E6D5
:101DE00015C042E26DE00E942C0E41EB6EE0CE0188
:101DF0000E942C0E4BE30AC041E26DE00E942C0EC3
:101E000042E66EE0CE010E942C0E46E76FE0CE0166
:101E1000DF91CF910C942C0ECF93DF93EC014EE227
:101E200060E00E942C0E4EE261E0CE010E942C0E7A
:101E300046E062E0CE010E942C0E47E063E0CE0156
:101E40000E942C0E4DE366E0CE010E942C0E44E071
:101E500067E0CE010E942C0E45E068E0CE010E94B2
:101E60002C0E47E465EBCE010E94C60E6FEFCE014B
:101E70000E94D70E60E0CE010E94DB0E48E06BE0CE
:101E8000CE010E942C0E40E06CE0CE010E942C0E90
:101E900062E0CE010E94DF0E4AEC60E1CE010E94BA
:101EA0002C0E43E861E1CE010E942C0E43E962E171
:101EB000CE010E942C0E42E263E1CE010E942C0E64
:101EC00048EF64E1CE010E942C0E45E365E1CE01AE
:101ED0000E942C0E47E066E1CE010E942C0E40E2EB
:101EE00067E1CE010E942C0E48E168E1CE010E941C
:101EF0002C0E46E169E1CE010E942C0E4CE66AE10F
:101F0000CE010E942C0E43E46BE1CE010E942C0E08
:101F100040E46CE1CE010E942C0E41E96DE1CE015E
:101F20000E942C0E47E86EE1CE010E942C0E4BE67B
:101F30006FE1CE010E942C0E4BEF60E2CE010E94B9
:101F40002C0E46E561E2CE010E942C0E40E162E2D9
:101F5000CE010E942C0E49EE63E2CE010E942C0EAF
:101F60004AE264E2CE010E942C0E40E065E2CE011E
:101F70000E942C0E4FE166E2CE010E942C0E41E43D
:101F800067E2CE010E942C0E40E068E2CE010E9482
:101F90002C0E49E569E2CE010E942C0E4FE76AE261
:101FA000CE010E942C0E4FE36BE2CE010E942C0E5C
:101FB00041E86CE2CE010E942C0E45E36DE2CE01B9
:101FC0000E942C0E49E06EE2CE010E942C0E40ECE5
:101FD0006EE3CE01DF91CF910C942C0ECF93DF9363
:101FE000EC012A9A85E090E00E9415072A988AE081
:101FF00090E00E9415072A9A89E290E00E94150756
:102000002A981C99FECF60E3CE010E94B9111C9959
:10201000FECF2A9ACE01DF91CF910C940C0FCF9373
:10202000DF93EC010E949A1160E082E00E94840735
:10203000CE01DF91CF910C94EE0FEF92FF921F93A0
:10204000CF93DF93EC017B01142F4E3308F01DE397
:1020500064E3CE010E94790E40EC65E3CE010E945C
:10206000800E982F9F719D3021F08131A9F76AE38E
:10207000F0CF84EF91E00E941507412F6FE3CE016E
:102080000E942C0E212FA7016FE3CE010E94470E64
:1020900065E3CE010E94790E40EC65E3CE010E941B
:1020A000800E8F718351833070F066E3CE010E9401
:1020B000790E6BE3CE010E94790E64E3CE010E949B
:1020C000790E80E01DC04A9BFECF4A99FECF0000EA
:1020D0001C8240EC6AE3CE010E94800E8F7751F0A3
:1020E0006BE3CE010E94790E66E3CE010E94790E69
:1020F00010E001C011E064E3CE010E94790E812F4F
:10210000DF91CF911F91FF90EF9008952F923F9212
:102110004F925F926F927F928F929F92AF92BF92F7
:10212000CF92DF92EF92FF920F931F93CF93DF93A3
:1021300000D01F92CDB7DEB79B838A831B014983F2
:102140002801390164E30E94790E40EC65E38A813D
:102150009B810E94800E982F9F719D3031F08131BC
:10216000A1F76AE38A819B81EECF84EF91E00E9420
:1021700015076BE38A819B810E94790E65E38A8152
:102180009B810E94790E40EC65E38A819B810E94CD
:10219000800E8F71835166E3833070F08A819B815A
:1021A0000E94790E64E38A819B810E94790E60E02F
:1021B00070E080E090E054C08A819B810E94790E9B
:1021C00042E267E18A819B810E942C0E65E38A814D
:1021D0009B810E94790E0E94BE064B015C01C12CBE
:1021E000D12C76010E94BE06DC01CB018819990929
:1021F000AA09BB0984159505A605B705B8F48FEFA4
:10220000C81AD80AE80AF80A49816FE38A819B81D3
:102210000E942C0E2981A1016FE38A819B810E947B
:10222000470E4A9BFECF4A99FECFDCCF0000EA81E1
:10223000FB81148266E3CF010E94790E40E267E1E0
:102240008A819B810E942C0E6BE38A819B810E9474
:10225000790E64E38A819B810E94790EB601C701E1
:102260000F900F900F90DF91CF911F910F91FF90E2
:10227000EF90DF90CF90BF90AF909F908F907F9026
:102280006F905F904F903F902F900895EF92FF9244
:102290001F93CF93DF936115710509F444C07B014F
:1022A000EC0140EC6BE30E94800E982F9F7711F4B5
:1022B00010E02BC087FDFCCF40E86FE3CE010E9409
:1022C000800E182F8FEF810F8D3390F7212F4FE362
:1022D000B701CE010E94920E40E86FE3CE010E944A
:1022E000800E87FD8095898389818695865B8983A9
:1022F00040E86FE3CE010E94800E982F9F779A836B
:10230000982F991F9927991F9B8366E3CE010E94FE
:10231000790E6AE3CE010E94790E64E3CE010E9439
:10232000790E812F01C080E0DF91CF911F91FF9046
:10233000EF90089561E08AE00E94C00761E08AE0C2
:102340000E94840761E08BE00E94840760E08CE0DB
:102350000E94840761E08DE00E94840761E08DE0C7
:102360000E94C00760E08BE00E94C00780E58CBD42
:1023700008956EBD0DB407FEFDCF8EB50895F89497
:102380000C941112FB01DC0104C08D9101908019A5
:1023900021F441505040C8F7881B990B0895A1E2E1
:1023A0001A2EAA1BBB1BFD010DC0AA1FBB1FEE1FCF
:1023B000FF1FA217B307E407F50720F0A21BB30B1A
:1023C000E40BF50B661F771F881F991F1A9469F796
:1023D00060957095809590959B01AC01BD01CF01F2
:1023E00008950E940212A59F900DB49F900DA49F86
:1023F000800D911D11240895EE0FFF1F0590F4919B
:10240000E02D0994A29FB001B39FC001A39F700D5E
:10241000811D1124911DB29F700D811D1124911DEC
:10242000089511E0CEEAD1E004C0FE010E94FC1143
:0C2430002196CF3AD107C9F7F894FFCFEE
:10243C00476F7420756E6B6E6F776E20706B7400C7
:10244C002C006F75742033320020460D0A00434F68
:10245C004D4D44006F75742000696E2000696E202C
:10246C0030202100696E20435243206572726F72D6
:10247C002E20706B745F73697A653D00000000005C
:10248C002E0AF007D709030AE709230A0000000007
:0C249C007B0CF007CE0BA50BBB0B1F0D3B
:00000001FF
