:100000000C94AF010C943B060C9468060C94D70139
:100010000C94D7010C94D7010C94D7010C94D70100
:100020000C94D7010C94D7010C94E9100C94471050
:100030000C9491110C94D7010C94D7010C94D70116
:100040000C9495060C94D7010C94AA080C94E4081F
:100050000C94D7010C94D7010C94D7010C94D701C0
:100060000C94D7010C94D70153656E64696E6720B8
:100070007061636B6574206661696C6564006469B6
:100080007361626C656400656E61626C65640064D6
:1000900065627567206D65737361676573200055D0
:1000A000534232524600284637206B6579207769E3
:1000B00074682067746B7465726D2920746F206595
:1000C0006E61626C652F64697361626C6520646542
:1000D000627567206F757470757400557362327243
:1000E0006620646562756720706F72742061742089
:1000F0003139323030206270732E20417373657253
:1001000074204454522000556E6B6E6F776E2063DE
:100110006F6D6D616E642000536F667477617265F8
:1001200020726573657420636F6D6D616E642C2041
:10013000626164206C656E677468203A2000536FBA
:1001400066747761726520726573657400446F6EC2
:10015000650053656E64696E672057616B65557005
:1001600020627572737420313035306D73005570B4
:100170006C6F616420636F646520636F6D6D616E89
:10018000642C20626164206C656E677468203A207C
:100190000053776974636820746F2075706C6F61A9
:1001A00064206D6F646500557362327266206D6FF6
:1001B00064756C65206661696C656420746F20727B
:1001C000657365740055534220746F205246205267
:1001D00065736574004D43552072657365742063C3
:1001E0006F6D6D616E642077726F6E672073697AD0
:1001F00065203A200053696C656E7420636F6D6DE5
:10020000616E642C20626164206C656E6774682086
:100210003A200053696C656E7420666F7220353029
:100220006D73006368616E6E656C3D004368616E5E
:100230006E656C20636F6D6D616E642077726F6E9A
:10024000672073697A65203A200063633131303169
:100250002077726F6E6720636D642073697A652002
:100260000053796E63776F7264203D20004375738D
:10027000746F6D20636F6D6D616E642C20626164BC
:10028000206C656E677468203A200043433131303A
:1002900031207265676973746572203D2000206F9C
:1002A0007220002C20627574206578706563746517
:1002B0006420003A2050726F746F636F6C20657217
:1002C000726F722E206170705F6964783D006F6B91
:1002D000206E65787420706B7400526573656E646F
:1002E00000706B74206F7574203A206964783D004B
:1002F00053617661696C3D0075706C6F61643A2082
:1003000054696D656F7574000000000700020100FC
:1003100000030406000000000000000001020408C1
:10032000102040800102040810200102040810205F
:10033000040404040404040402020202020203038B
:100340000303030300000000250028002B00000029
:100350000000240027002A00F3019A090E0211244C
:100360001FBECFEFD8E0DEBFCDBF11E0A0E0B1E00F
:10037000E0EAF4E202C005900D92A237B107D9F786
:1003800012E0A2E7B1E001C01D92A43EB107E1F77F
:1003900013E0CCE5D3E004C02297FE010E943F1297
:1003A000C835D107C9F70E94A7040C94F1110C9429
:1003B000000081E08093880108956115710581F046
:1003C000DB010D900020E9F7AD0141505109461BBA
:1003D000570BDC01ED91FC910280F381E02D099433
:1003E00080E090E0089584E891E00E94D90B10929B
:1003F0007B0110927A0188EE93E0A0E0B0E0809358
:100400007C0190937D01A0937E01B0937F0186E6ED
:1004100091E09093790180937801089586E691E0C8
:1004200090937901809378010C94DD1186E991E035
:100430000E9440080196D1F708958F929F92AF9243
:10044000BF92CF92DF92EF92FF920F931F93CF93C1
:10045000DF93CDB7DEB7C058D1090FB6F894DEBF31
:100460000FBECDBF8C010E94DF066B017C0164E1F1
:1004700086E991E00E946D08812C992493940E9452
:10048000DF066C197D098E099F09653671058105A6
:10049000910570F04C9906C068EF72E088E791E032
:1004A0000E94180A66E186E991E00E946D08F8C092
:1004B0008110F3C086E991E00E94130880970CF444
:1004C00041C040E250E0BE016F5B7F4F86E991E0A2
:1004D0000E94B60B0132110528F064E186E991E033
:1004E0000E946D084C9911C060EF72E088E791E0BE
:1004F0000E94180A86E991E00E9413084AE050E041
:10050000BC0188E791E00E94290B992009F4C2C040
:1005100040E2BE016F5B7F4F84E891E00E94CB0D0B
:100520004C990DC061EE72E088E791E00E94180AD4
:100530004AE050E0B80188E791E00E94720B8824FD
:100540008394912C80918801882309F498CFBE016F
:100550006F5F7F4F84E891E00E94F40E1092880153
:10056000833009F085C080918701882309F480C019
:100570000E94DF066B017C018981843009F061C033
:100580008A81AB80B12CBA2CAA24A80EB11CA0166B
:10059000B106B1F440E2BE016F5B7F4F84E891E0A9
:1005A0000E94CB0D65E186E991E00E946D084C99AF
:1005B00068C06AED72E088E791E00E945A0A61C063
:1005C000480180E2881A9108A814B90449F44C99AA
:1005D0005AC06EEC72E088E791E00E945A0A53C05C
:1005E0004C992FC04AE050E06BE870E088E791E05A
:1005F0000E94210B63EB72E088E791E00E94180AE9
:100600004AE050E0B50188E791E00E946C0B63EA94
:1006100072E088E791E00E94180A4AE050E0B401D5
:1006200088E791E00E946C0B6EE972E088E791E048
:100630000E94180A4AE050E0B80188E791E00E9461
:100640006C0B0E94160266E186E991E00E946D083B
:10065000E0919601F09197010280F381E02D43E053
:1006600050E0BE016F5F7F4F86E991E0099518C0A9
:100670004C990DC066E071E088E791E00E943D0A68
:1006800006C0912C05C0812C9924939401C0580177
:100690008501F5CE8824839455CF911039CF52CF60
:1006A000C058DF4F0FB6F894DEBF0FBECDBFDF914D
:1006B000CF911F910F91FF90EF90DF90CF90BF905F
:1006C000AF909F908F900895FF920F931F93CF93B9
:1006D000DF931F92CDB7DEB78C01F62EFC0180812F
:1006E000813509F483C048F48134D9F1833409F4A5
:1006F00062C0803309F00BC10FC0853509F4ACC06E
:1007000020F4823509F48DC002C1873509F4BFC0D9
:100710008A3509F4DEC0FBC0F1E06F1312C04C99BA
:100720000FC16BE872E088E791E00E94180A40E888
:1007300062E184E891E00E942E0C40E150E0682FD5
:100740000BC04C99FDC06DE672E088E791E00E9415
:10075000180A4AE050E06F2D88E791E00E94550B9F
:10076000EFC083E0681322C0F8014281618184E810
:1007700091E00E94740C4C99E3C061E672E088E756
:1007800091E00E94180A4AE050E0F801618188E790
:1007900091E00E944E0B66E171E088E791E00E94D3
:1007A0003D0A4AE050E0F8016281D6CF4C99C8C0BA
:1007B0006AE472E0CACFF2E06F1729F04C99C0C02A
:1007C0006CE272E0C2CFF8011181612F84E891E000
:1007D0000E94890C4C99B4C063E272E088E791E012
:1007E0000E94180A4AE050E0612FB6CFF1E06F1383
:1007F00013C04C9981C063E172E088E791E00E94E8
:100800005A0A0E94DF06609372017093730180930D
:1008100074019093750170C04C9992C065EF71E0BE
:1008200094CF81E0681729F04C998AC065ED71E09A
:100830008CCF4C9906C065EC71E088E791E00E948E
:100840005A0A40E060E084E891E00E94740C5B98F2
:10085000539A67EA71E038C0E3E06E1313C04C9915
:1008600006C061E971E088E791E00E945A0AF80148
:100870002181828190E0982F8827820F911D0E940C
:100880001D025EC04C995CC06EE671E05ECFF1E087
:100890006F1356C04C9906C062E571E088E791E09D
:1008A0000E945A0A8AE289830AE114E020E030E0DB
:1008B00041E0BE016F5F7F4F84E891E00E94360EF9
:1008C0004C993EC06DE471E088E791E00E945A0ABD
:1008D00037C081E0681316C04C9908C06EE371E020
:1008E00088E791E00E945A0A0E94E21040E060E02E
:1008F00084E891E00E94740CE0917601F091770118
:1009000009951EC04C991CC068E171E01ECF4C993E
:1009100017C067E071E088E791E00E94180AE09153
:100920007801F09179014F2D50E00280F381E02DA4
:10093000B80188E791E0099588E791E00E94460AAE
:100940000F90DF91CF911F910F91FF900895CF935A
:10095000DF93CDB7DEB7C054D1090FB6F894DEBF30
:100960000FBECDBF0E94400762E084E00E94A40752
:1009700040E056E960E070E086E991E00E941F09DE
:1009800061EA71E080E090E00E94A50F84E891E0C8
:100990000E94BD0D44E067E084E891E00E94DA0B1C
:1009A00048EE69E384E891E00E94740C42E050E074
:1009B00069ED71E080E00E941B0647E962E184E88E
:1009C00091E00E94DA0B6BED70E088E791E00E9405
:1009D0005A0A66EA70E088E791E00E945A0A0E948B
:1009E000EB066B017C0165E070E080E090E00E9426
:1009F0000E076FE970E086E991E00E945A0AB12C77
:100A000000E010E0AA24A39489B1829581708A2520
:100A10008B15B1F0B9B0B4FABB24B0F8BA246FE8C2
:100A200070E088E791E00E94180A4C9903C067E8DB
:100A300070E002C06EE770E088E791E00E945A0A19
:100A400086E991E0002371F10E941308892B89F057
:100A500086E991E00E944008E1E0F0E0EC0FFD1F24
:100A6000E10FF11D80831F5F103209F062C000E0CA
:100A70005CC00E94EB066C197D098E099F09613DDF
:100A800077408105910508F48DC0112329F0612F6D
:100A9000CE0101960E9464030E94EB066B017C016B
:100AA00000E07FC00E941308892B09F440C086E94A
:100AB00091E00E944008E1E0F0E0EC0FFD1FE10F43
:100AC000F11D80831F5F103219F54C9906C068E153
:100AD00071E088E791E00E94DD0140E2BE016F5FB6
:100AE0007F4F84E891E00E94CB0D182F4C990BC0EA
:100AF000882319F061E271E002C06FE171E088E7DC
:100B000091E00E94DD014C9910C011110EC08CC003
:100B1000153079F445E050E064E271E0CE010196D1
:100B20000E94F411892B29F401E010E002C0111198
:100B300005C00E94EB066B017C0134C00E94EB06ED
:100B40006C197D098E099F09613D774081059105EA
:100B500048F14C990DC06AE271E088E791E00E948B
:100B6000DD014AE050E0612F88E791E00E944E0BE2
:100B7000412FBE016F5F7F4F84E891E00E94CB0D53
:100B80004C990BC0882319F061E271E002C06FE15B
:100B900071E088E791E00E94DD010E94EB066B01A5
:100BA0007C0110E080918801882309F42DCFBE01DB
:100BB0006F5F7F4F84E891E00E94F40E982E1092B0
:100BC0008801809187018823F9F09920A1F0E091B4
:100BD0009601F0919701492D50E00280F381E02DBC
:100BE000BE016F5F7F4F86E991E009954C990CCF6C
:100BF0006FE271E00DC04C9907CF63E371E088E7C5
:100C000091E00E946C0A00CF4C99FECE6AE371E03D
:100C100088E791E00E94DD014AE050E0692D88E715
:100C200091E00E94550BF0CE68E670E088E791E015
:100C30000E945A0A7ACF8230E8F4E82FF0E0EE0FF3
:100C4000FF1FE757FE4F71836083813041F0809131
:100C500069008C7F842B80936900E89A08958091C5
:100C60006900440F551F440F551F837F842B8093C9
:100C70006900E99A08951F920F920FB60F921124FE
:100C80002F933F934F935F936F937F938F939F9394
:100C9000AF93BF93EF93FF938091890190918A0165
:100CA000892B29F0E0918901F0918A010995FF9142
:100CB000EF91BF91AF919F918F917F916F915F91D4
:100CC0004F913F912F910F900FBE0F901F9018954D
:100CD0001F920F920FB60F9211242F933F934F93B1
:100CE0005F936F937F938F939F93AF93BF93EF9394
:100CF000FF9380918B0190918C01892B29F0E091D9
:100D00008B01F0918C010995FF91EF91BF91AF910B
:100D10009F918F917F916F915F914F913F912F9113
:100D20000F900FBE0F901F9018951F920F920FB645
:100D30000F9211242F933F938F939F93AF93BF9361
:100D400080918E0190918F01A0919001B0919101BD
:100D500030918D0126E0230F2D3720F40296A11D3E
:100D6000B11D05C029E8230F0396A11DB11D2093D5
:100D70008D0180938E0190938F01A0939001B09389
:100D800091018091920190919301A0919401B09171
:100D900095010196A11DB11D80939201909393013D
:100DA000A0939401B0939501BF91AF919F918F91C2
:100DB0003F912F910F900FBE0F901F9018952FB756
:100DC000F89460918E0170918F01809190019091C3
:100DD00091012FBF08953FB7F894809192019091AF
:100DE0009301A0919401B091950126B5A89B05C0EF
:100DF0002F3F19F00196A11DB11D3FBF6627782F27
:100E0000892F9A2F620F711D811D911D43E0660F7E
:100E1000771F881F991F4A95D1F70895CF92DF92C7
:100E2000EF92FF92CF93DF936B017C010E94EB0660
:100E3000EB01C114D104E104F10479F00E94EB0646
:100E40006C1B7D0B683E7340A0F381E0C81AD1088B
:100E5000E108F108C851DC4FECCFDF91CF91FF9052
:100E6000EF90DF90CF9008958130910541F0029787
:100E7000009729F0880F991F01970197F1F70895BE
:100E8000789484B5826084BD84B5816084BD85B565
:100E9000826085BD85B5816085BDEEE6F0E080812C
:100EA00081608083E1E8F0E010828081826080834D
:100EB000808181608083E0E8F0E0808181608083D0
:100EC000E1EBF0E0808184608083E0EBF0E0808102
:100ED00081608083EAE7F0E08081846080838081A4
:100EE000826080838081816080838081806880834C
:100EF0001092C1000895833081F028F4813099F078
:100F00008230A1F008958630A9F08730B9F084309E
:100F1000D1F4809180008F7D03C0809180008F7715
:100F200080938000089584B58F7702C084B58F7D4B
:100F300084BD08958091B0008F7703C08091B00088
:100F40008F7D8093B0000895CF93DF9390E0FC01F4
:100F5000E45EFC4F2491FC01E05DFC4F849188230A
:100F600049F190E0880F991FFC01E25BFC4FA591CD
:100F7000B4918C5B9C4FFC01C591D4919FB76111DA
:100F800008C0F8948C91209582238C9388818223C9
:100F90000AC0623051F4F8948C91322F309583233B
:100FA0008C938881822B888304C0F8948C91822B47
:100FB0008C939FBFDF91CF9108950F931F93CF9391
:100FC000DF931F92CDB7DEB7282F30E0F901E85F3D
:100FD000FC4F8491F901E45EFC4F1491F901E05D4E
:100FE000FC4F04910023C9F0882321F069830E94FB
:100FF0007B076981E02FF0E0EE0FFF1FEC5BFC4FF9
:10100000A591B4919FB7F8948C91611103C010958C
:10101000812301C0812B8C939FBF0F90DF91CF91D3
:101020001F910F910895FC0124853585F901E05C3D
:10103000FF4F80819181F901EE5BFF4F208131816B
:10104000821B930B8F7399270895FC0184859585E6
:10105000FC01E05CFF4F40815181FC01EE5BFF4FE2
:10106000208131814217530741F00190F081E02D3A
:10107000E80FF91F808190E008958FEF9FEF0895AA
:10108000FC0184859585FC01E05CFF4F4081518126
:10109000FC01EE5BFF4F208131814217530779F04D
:1010A000A081B181A80FB91F8C91208131812F5F60
:1010B0003F4F2F7333273183208390E008958FEFC4
:1010C0009FEF0895FC0181A1882329F0A489B589A7
:1010D0008C9186FFFBCF11A20895CF93DF93FC0183
:1010E00026853785D901A05CBF4F8D919C911197C2
:1010F00001968F739927E901CE5BDF4F48815981B3
:1011000084179507D9F30D90BC91A02DA20FB31FA2
:101110006C93A685B785A05CBF4F11969C938E9368
:10112000A689B7892C9181E090E0078C02C0880FD6
:10113000991F0A94E2F7282B2C9381E081A304885D
:10114000F589E02D80818064808381E090E0DF91EB
:10115000CF9108951F920F920FB60F9211242F93E3
:101160003F934F938F939F93EF93FF938091C00092
:1011700082FD1CC04091C60080913C0290913D02CE
:1011800001968F73992720913E0230913F0282177A
:10119000930771F0E0913C02F0913D02E450FE4F64
:1011A000408390933D0280933C0202C08091C60030
:1011B000FF91EF919F918F914F913F912F910F90C0
:1011C0000FBE0F901F9018951F920F920FB60F929F
:1011D00011242F933F938F939F93EF93FF9320912D
:1011E000F8013091F9018091FA019091FB012817E3
:1011F000390731F48091C1008F7D8093C10014C004
:10120000E091FA01F091FB01E854FE4F20818091BA
:10121000FA019091FB0101968F7399279093FB013E
:101220008093FA012093C600FF91EF919F918F91D7
:101230003F912F910F900FBE0F901F901895CF9256
:10124000DF92EF92FF92CF93DF93EC016A017B0173
:10125000EC89FD8981E090E008A002C0880F991F09
:101260000A94E2F7808360E874E88EE190E0A701D9
:1012700096010E940C1221503109410951095695DD
:10128000479537952795211580E1380798F0EC8927
:10129000FD89108260E472E48FE090E0A70196017E
:1012A0000E940C1221503109410951095695479568
:1012B00037952795E889F9893083EA89FB89208366
:1012C00019A2EE89FF89408181E090E09C010C8C9D
:1012D00002C0220F331F0A94E2F7422B4083EE89AB
:1012E000FF8940819C010D8C02C0220F331F0A949C
:1012F000E2F7422B4083EE89FF8940819C010E8CEE
:1013000002C0220F331F0A94E2F7422B4083EE897A
:10131000FF8920810F8C02C0880F991F0A94E2F781
:10132000809582238083DF91CF91FF90EF90DF90B3
:10133000CF900895109299011092980188EE93E051
:10134000A0E0B0E080939A0190939B01A0939C0150
:10135000B0939D0186E591E090939701809396016B
:101360008CEF91E09093A3018093A20188EB91E030
:101370009093A5018093A40185EC90E09093A70140
:101380008093A60184EC90E09093A9018093A8013A
:1013900080EC90E09093AB018093AA0181EC90E007
:1013A0009093AD018093AC0182EC90E09093AF01FB
:1013B0008093AE0186EC90E09093B1018093B001F0
:1013C00084E08093B20183E08093B30187E080934F
:1013D000B40185E08093B50181E08093B601089562
:1013E000CF92DF92EF92FF920F931F93CF93DF93F1
:1013F0006C017A01EB01E60EF71E00E010E0CE155D
:10140000DF0561F06991D601ED91FC910190F081C9
:10141000E02DC6010995080F191FF1CFC801DF9112
:10142000CF911F910F91FF90EF90DF90CF90089593
:10143000EF92FF920F931F93CF93DF938C01FB01E9
:10144000C0E0D0E064917F018FEFE81AF80A6623CC
:1014500061F0D801ED91FC910190F081E02DC8017F
:101460000995C80FD91FF701EDCFCE01DF91CF91BC
:101470001F910F91FF90EF9008950C94DD01DC0116
:10148000ED91FC910190F081E02D09940F931F9351
:10149000CF93DF93EC016DE00E943F0A8C016AE07C
:1014A000CE010E943F0A800F911FDF91CF911F91C3
:1014B0000F9108950F931F93CF93DF93EC010E9438
:1014C000180A8C01CE010E94460A800F911FDF91FD
:1014D000CF911F910F9108950F931F93CF93DF9397
:1014E000EC010E94DD018C01CE010E94460A800FB2
:1014F000911FDF91CF911F910F9108958F929F922D
:10150000AF92BF92CF92DF92EF92FF920F931F9311
:10151000CF93DF93CDB7DEB7A1970FB6F894DEBFB8
:101520000FBECDBF7C01C42EE52FCB01D22E19A258
:1015300021E02D1510F02AE0D22E8E010F5D1F4FF5
:101540008D2C912CA12CB12C6C2D7E2FA5019401FA
:101550000E940C128C2DD29E801911240150110969
:101560008A3014F4805D01C0895CF8018083211504
:1015700031054105510521F0C22EE32FCA01E4CF08
:10158000B801C7010E94DD01A1960FB6F894DEBF35
:101590000FBECDBFDF91CF911F910F91FF90EF90C4
:1015A000DF90CF90BF90AF909F908F900895CF9293
:1015B000DF92EF92FF920F931F93CF93DF93EC0193
:1015C0006A017B012115310579F4E881F9810190E7
:1015D000F081E02D642FDF91CF911F910F91FF904B
:1015E000EF90DF90CF9009942A303105E9F477FF2E
:1015F0001AC06DE20E943F0A8C0144275527BA01A8
:101600004C195D096E097F092AE0CE010E947E0A0D
:10161000800F911FDF91CF911F910F91FF90EF905D
:10162000DF90CF9008952AE0B701A601CE01DF91A7
:10163000CF911F910F91FF90EF90DF90CF900C947E
:101640007E0A9A01AB01662757FD6095762F0C94B0
:10165000D70A0F931F93CF93DF93EC019A01AB014D
:10166000662757FD6095762F0E94D70A8C01CE0120
:101670000E94460A800F911FDF91CF911F910F9119
:1016800008952115310541F4DC01ED91FC910190A3
:10169000F081E02D642F09940C947E0A9A01462F64
:1016A00050E060E070E00C94410B0F931F93CF93D8
:1016B000DF93EC019A01462F50E060E070E00E9459
:1016C000410B8C01CE010E94460A800F911FDF91D1
:1016D000CF911F910F9108959A01AB0160E070E0E6
:1016E0000C94410B0F931F93CF93DF93EC019A015E
:1016F000AB0160E070E00E94410B8C01CE010E94C2
:10170000460A800F911FDF91CF911F910F9108958D
:101710000F931F93CF93DF93EC010E94DF0668873E
:1017200079878A879B87E881F9810680F781E02D98
:10173000CE01099597FF15C00E94DF06088519851F
:101740002A853B85601B710B820B930B0C811D81DD
:101750002E813F81601771078207930720F38FEF77
:101760009FEFDF91CF911F910F910895CF92DF925C
:10177000EF92FF920F931F93CF93DF937C016A0147
:10178000EB0100E010E00C151D0549F0C7010E94B7
:10179000880B97FD04C089930F5F1F4FF4CFC801DA
:1017A000DF91CF911F910F91FF90EF90DF90CF903D
:1017B000089508950F931F93CF93DF931F92CDB792
:1017C000DEB78C012A981C99FECFC80149830E947C
:1017D000670F4981642FC8010E94670F2A9A0F90F2
:1017E000DF91CF911F910F910895CF92DF92EF92E9
:1017F000FF920F931F93CF93DF9300D0CDB7DEB747
:101800008C01F22E60642A981C99FECFC80149838E
:101810005A830E94670F4981E42EC42E5A81D52E27
:101820008C2D8E198F1538F4F60161916F01C80166
:101830000E94670FF5CF2A9A0F900F90DF91CF91FA
:101840001F910F91FF90EF90DF90CF9008952A980D
:101850001C99FECF0E94670F2A9A0895CF93DF93B9
:10186000EC01642B2A981C99FECFCE010E94670FD1
:1018700060E0CE010E94670F2A9ADF91CF91089510
:10188000AF92BF92DF92EF92FF920F931F93CF938D
:10189000DF931F92CDB7DEB78C01F62EE22E406C9F
:1018A0002A981C99FECF642FC80179830E94670F84
:1018B000DF2CAF2C7981B72E8A2D8D198E1540F42F
:1018C00060E0C8010E94670FF50181935F01F4CFCA
:1018D0002A9A0F90DF91CF911F910F91FF90EF9077
:1018E000DF90BF90AF9008951F93CF93DF93EC01EB
:1018F000142F462F64E00E94DA0B412F65E0CE01E1
:10190000DF91CF911F910C94DA0B462F69E00C9474
:10191000DA0B462F6AE00C94DA0BCF93DF93EC01DD
:10192000613069F06230B1F440E16DE00E94DA0BA1
:1019300047EA6EE0CE010E94DA0B42E615C042E2B1
:101940006DE00E94DA0B41EB6EE0CE010E94DA0BF3
:101950004BE30AC041E26DE00E94DA0B42E66EE022
:10196000CE010E94DA0B46E76FE0CE01DF91CF9106
:101970000C94DA0BCF93DF93EC014EE260E00E940F
:10198000DA0B4EE261E0CE010E94DA0B46E062E043
:10199000CE010E94DA0B47E063E0CE010E94DA0B31
:1019A0004DE366E0CE010E94DA0B44E067E0CE0131
:1019B0000E94DA0B45E068E0CE010E94DA0B47E4B2
:1019C00065EBCE010E94740C6FEFCE010E94850C76
:1019D00060E0CE010E94890C48E06BE0CE010E94DD
:1019E000DA0B40E06CE0CE010E94DA0B62E0CE013F
:1019F0000E948D0C4AEC60E1CE010E94DA0B43E8B4
:101A000061E1CE010E94DA0B43E962E1CE010E945E
:101A1000DA0B42E263E1CE010E94DA0B48EF64E1A7
:101A2000CE010E94DA0B45E365E1CE010E94DA0B9C
:101A300047E066E1CE010E94DA0B40E267E1CE01A9
:101A40000E94DA0B48E168E1CE010E94DA0B46E120
:101A500069E1CE010E94DA0B4CE66AE1CE010E94F8
:101A6000DA0B43E46BE1CE010E94DA0B40E46CE157
:101A7000CE010E94DA0B41E96DE1CE010E94DA0B42
:101A800047E86EE1CE010E94DA0B4BE66FE1CE0132
:101A90000E94DA0B4BEF60E2CE010E94DA0B46E5C2
:101AA00061E2CE010E94DA0B40E162E2CE010E94C7
:101AB000DA0B49EE63E2CE010E94DA0B4AE264E2FD
:101AC000CE010E94DA0B40E065E2CE010E94DA0B03
:101AD0004FE166E2CE010E94DA0B41E467E2CE01FB
:101AE0000E94DA0B40E068E2CE010E94DA0B49E581
:101AF00069E2CE010E94DA0B4FE76AE2CE010E9452
:101B0000DA0B4FE36BE2CE010E94DA0B41E86CE2A4
:101B1000CE010E94DA0B45E36DE2CE010E94DA0BA2
:101B200049E06EE2CE010E94DA0B40EC6EE3CE019A
:101B3000DF91CF910C94DA0BCF93DF93EC012A9ACB
:101B400085E090E00E9434072A988AE090E00E94A5
:101B500034072A9A89E290E00E9434072A981C9957
:101B6000FECF60E3CE010E94670F1C99FECF2A9A38
:101B7000CE01DF91CF910C94BA0CCF93DF93EC019F
:101B80000E94480F60E082E00E94A407CE01DF912E
:101B9000CF910C949C0DFF920F931F93CF93DF93E3
:101BA000EC018B01F42E8DE3841710F48DE3F82EF5
:101BB00064E3CE010E94270C40EC65E3CE010E9455
:101BC0002E0C982F9F719D3021F08131A9F76AE387
:101BD000F0CF84EF91E00E9434074F2D6FE3CE01E8
:101BE0000E94DA0B2F2DA8016FE3CE010E94F50BA6
:101BF00065E3CE010E94270C40EC65E3CE010E9414
:101C00002E0C8F718351833070F066E3CE010E94F9
:101C1000270C6BE3CE010E94270C64E3CE010E94E7
:101C2000270C80E01DC04A9BFECF4A99FECF0000E2
:101C30001C8240EC6AE3CE010E942E0C8F7751F09B
:101C40006BE3CE010E94270C66E3CE010E94270CB5
:101C500010E001C011E064E3CE010E94270C812F47
:101C6000DF91CF911F910F91FF9008952F923F9296
:101C70004F925F926F927F928F929F92AF92BF929C
:101C8000CF92DF92EF92FF920F931F93CF93DF9348
:101C900000D01F92CDB7DEB79B838A831B01498397
:101CA0004801590164E30E94270C40EC65E38A81F6
:101CB0009B810E942E0C982F9F719D3031F08131B5
:101CC000A1F76AE38A819B81EECF84EF91E00E94C5
:101CD00034076BE38A819B810E94270C65E38A812C
:101CE0009B810E94270C40EC65E38A819B810E94C6
:101CF0002E0C8F71835166E3833070F08A819B8153
:101D00000E94270C64E38A819B810E94270C60E07B
:101D100070E080E090E052C08A819B810E94270C95
:101D200042E267E18A819B810E94DA0B65E38A8146
:101D30009B810E94270C0E94DF062B013C01C12CD5
:101D4000D12C76010E94DF0664197509860997096E
:101D5000681579058A059B05B8F48FEFC81AD80A6B
:101D6000E80AF80A49816FE38A819B810E94DA0BB5
:101D70002981A1016FE38A819B810E94F50B4A9B17
:101D8000FECF4A99FECFDECF0000EA81FB811482AC
:101D900066E3CF010E94270C40E267E18A819B81C4
:101DA0000E94DA0B6BE38A819B810E94270C64E31B
:101DB0008A819B810E94270CB601C7010F900F906A
:101DC0000F90DF91CF911F910F91FF90EF90DF90D7
:101DD000CF90BF90AF909F908F907F906F905F90CB
:101DE0004F903F902F900895FF920F931F93CF93A2
:101DF000DF93EC018B016115710509F442C040ECE1
:101E00006BE30E942E0C982F9F7711F4F12C2BC0BE
:101E100087FDFCCF40E86FE3CE010E942E0CF82E28
:101E20008FEF8F0D8D3390F72F2D4FE3B801CE013B
:101E30000E94400C40E86FE3CE010E942E0C87FD0B
:101E40008095898399819695965B998340E86FE3A5
:101E5000CE010E942E0C982F9F779A83982F991F5E
:101E60009927991F9B8366E3CE010E94270C6AE3A2
:101E7000CE010E94270C64E3CE010E94270C8F2D17
:101E800001C080E0DF91CF911F910F91FF900895E5
:101E900061E08AE00E94DD0761E08AE00E94A40719
:101EA00061E08BE00E94A40760E08CE00E94A40740
:101EB00061E08DE00E94A40761E08DE00E94DD07F3
:101EC00060E08BE00E94DD0780E58CBD08956EBD6B
:101ED0000DB407FEFDCF8EB508958091DA02909182
:101EE000D902891769F09F5F903508F090E0E92FDB
:101EF000F0E0E757FD4F80819093D90290E008957C
:101F00008FEF9FEF08958091DA02E091D9028E174A
:101F100051F0EF5FE03508F0E0E0F0E0E757FD4F0B
:101F2000808190E008958FEF9FEF08955091DA023D
:101F30004091D902852F90E0242F30E0541710F4FF
:101F4000805B9F4F821B930B08959B01AC01213650
:101F500088E138074105510530F410926F00109266
:101F6000800081E825C073E0569547953795279501
:101F70007A95D1F7213688E138074105510530F4CB
:101F800010926F001092800082E812C065E05695B2
:101F90004795379527956A95D1F7213688E1380717
:101FA00041055105B0F510926F001092800084E851
:101FB000809381003093E3022093E202A5E2B0E037
:101FC0000E94011222E096958795779567952A954C
:101FD000D1F77093DC026093DB0262E088E00E943C
:101FE000A40761E089E00E94DD0761E089E00E94CA
:101FF000A4071092E1021092DA021092D902109214
:102000008802109285021092840280E286BB80933F
:102010006F000895909185029F5F943408F090E0DE
:10202000209184022917E1F32FB7F89430918802A8
:10203000332341F0E92FF0E0E05CFD4F8083909383
:1020400085021DC091E090938802809387021092D0
:10205000860282E086BB80916F00826080936F0071
:10206000809180008F7380688093800080918400CD
:1020700090918500409690938900809388002FBFAF
:102080000895862F0E940A1081E090E008951F9223
:102090000F920FB60F9211242F933F934F935F939C
:1020A0006F937F938F939F93EF93FF934091880259
:1020B0005091870280918800909189002091E202DE
:1020C0003091E302709186024A3008F5820F931F27
:1020D000493019F0652F617001C061E056954F5F7E
:1020E000671791F320918000662311F0206C02C0E5
:1020F0002F7320682093800090938900809388003C
:102100006093860250938702409388024CC050919E
:102110008502E09184025E1319C04A3051F44BE00D
:1021200040938802820F931F9093890080938800C8
:102130003AC010928802809180008F738093800053
:1021400080916F008D7F80936F002DC0EF5FE4342E
:1021500008F0E0E0E0938402F0E0E05CFD4F2081D5
:102160002093870210928602209180002F732068AE
:10217000209380004A3059F42091E2023091E3022A
:10218000280F391F309389002093880009C080915F
:1021900084009091850040969093890080938800F8
:1021A00081E080938802FF91EF919F918F917F91C1
:1021B0006F915F914F913F912F910F900FBE0F90B4
:1021C0001F901895809188028111FCCF08950C947E
:1021D000E2101F920F920FB60F9211242F933F938C
:1021E0004F935F936F937F938F939F93AF93EF93EF
:1021F000FF9340918600509187009091DF0280917B
:102200008100992331F08F7B809381001092DF024F
:1022100006C080648093810080E88093DF02E091B3
:10222000E102E11125C091116CC08091DB02909117
:10223000DC02840F951F90938B0080938A0084E0CA
:1022400086BB80916F00846080936F008091E20272
:102250009091E302480F591F96958795480F591F93
:102260005093DE024093DD0281E08093E10249C099
:102270008091DD029091DE022091E2023091E30232
:10228000B90160957095A091DF02F091E002481BC2
:10229000590B6417750768F1F695FA2B820F931F97
:1022A000EF5F421B530BE930A0F3F093E002809103
:1022B0006F008B7F80936F008091DA028F5F803593
:1022C00008F080E09091D902891749F0E82FF0E0FA
:1022D0009091E002E757FD4F90838093DA0280915E
:1022E00081008F7B809381001092DF021092E102C7
:1022F00008C0F093E0029093DE028093DD02E09349
:10230000E102FF91EF91AF919F918F917F916F913A
:102310005F914F913F912F910F900FBE0F901F90A3
:1023200018951F920F920FB60F9211242F938F932F
:102330009F93EF93FF9380916F008B7F80936F004B
:10234000809181008F7B809381008091E1022091B8
:10235000DF0220589091E002893020F496958F5F3B
:10236000922BFACF9093E0028091DA028F5F803552
:1023700008F080E02091D902821739F0E82FF0E0D0
:10238000E757FD4F90838093DA021092E10280912B
:1023900081008F7B809381001092DF02FF91EF918B
:1023A0009F918F912F910F900FBE0F901F901895B6
:1023B0008091D9028093DA020895CF93DF93CFE61C
:1023C000D0E088818B7F888388818F7D88830E947D
:1023D000D8110E94E21088818D7F8883DF91CF9190
:1023E0000895F8940C944312FB01DC0104C08D9114
:1023F0000190801921F441505040C8F7881B990B77
:1024000008950E942E12A59F900DB49F900DA49F39
:10241000800D911D11240895A1E21A2EAA1BBB1B49
:10242000FD010DC0AA1FBB1FEE1FFF1FA217B307A0
:10243000E407F50720F0A21BB30BE40BF50B661FB6
:10244000771F881F991F1A9469F76095709580957A
:1024500090959B01AC01BD01CF010895A29FB001F1
:10246000B39FC001A39F700D811D1124911DB29FC8
:10247000700D811D1124911D0895EE0FFF1F059011
:10248000F491E02D099413E0CCE5D3E004C0FE0103
:102490000E943F122296CE35D107C9F7F894FFCF9C
:1024A0000000E4022000476F7420756E6B6E6F773A
:1024B0006E20706B74002C006F7574203332002016
:1024C000460D0A00434F4D4D44006F75742000695E
:1024D0006E2000696E2030202100696E2043524337
:1024E000206572726F722E20706B745F73697A65EB
:1024F0003D00000000006D08F009130840082508A1
:102500006208000000004110F009960F6D0F830F64
:02251000E710D2
:00000001FF
