:100000000C9410010C94E2030C940F040C9438012E
:100010000C9438010C9438010C9438010C9438017C
:100020000C9438010C9438010C94FB0C0C94590C72
:100030000C94A30D0C9438010C9438010C943801E5
:100040000C943C040C9438010C9451060C948B06CF
:100050000C9438010C9438010C9438010C9438013C
:100060000C9438010C94380153656E64696E6720F6
:100070007061636B6574206661696C6564006469B6
:100080007361626C656400656E61626C65640064D6
:1000900065627567206D65737361676573200055D0
:1000A000736232726620646562756720706F727465
:1000B0002061742031393230302062707300556E07
:1000C0006B6E6F776E20636F6D6D616E6420005391
:1000D0006F66747761726520726573657420636FF3
:1000E0006D6D616E642C20626164206C656E677456
:1000F00068203A2000536F667477617265207265DC
:100100007365740053696C656E7420636F6D6D6107
:100110006E642C20626164206C656E677468203A9E
:10012000200053696C656E7420666F722035306DE7
:1001300073006363313130312077726F6E672063F3
:100140006D642073697A65200053796E63776F72EE
:1001500064203D2000557362327266206D6F6475B5
:100160006C65206661696C656420746F20726573CC
:1001700065740055534220746F20524620526573B7
:100180006574004D435520726573657420636F6D0F
:100190006D616E642077726F6E672073697A652077
:1001A0003A20006368616E6E656C3D004368616E65
:1001B0006E656C20636F6D6D616E642077726F6E1B
:1001C000672073697A65203A20000000000700026A
:1001D000010000030406000000000000000001020E
:1001E00004081020408001020408102001020408C5
:1001F00010200404040404040404020202020202A3
:1002000003030303030300000000250028002B0064
:1002100000000000240027002A002F0241074A02A4
:1002200011241FBECFEFD8E0DEBFCDBF11E0A0E0AC
:10023000B1E0E4ECFCE102C005900D92A436B107F8
:10024000D9F713E0A4E6B1E001C01D92A731B107D0
:10025000E1F712E0CEE1D2E004C02297FE010E9455
:10026000510ECA31D107C9F70E9452020C94030EF5
:100270000C94000081E08093B6010895611571052A
:1002800081F0DB010D900020E9F7AD0141505109EB
:10029000461B570BDC01ED91FC910280F381E02DB0
:1002A000099480E090E008951F93CF93DF93EC01D1
:1002B000162F8881813509F479C030F4813409F42E
:1002C0004FC0833439F0ABC0823519F18A3509F457
:1002D00087C0A5C0623029F04C99BDC06CEA71E0BE
:1002E0001EC0C9816C2F87EB91E00E9459094C997F
:1002F000B2C063EA71E08AE691E00E94BF074AE07B
:1003000050E06C2F8AE691E0DF91CF911F910C9421
:100310009208613061F04C999EC063E871E08AE612
:1003200091E00E94BF074AE050E0612FEBCF4C996B
:1003300006C063E771E08AE691E00E94010840E0B0
:1003400060E087EB91E00E9444095B98539A65E571
:1003500071E08AE691E0DF91CF911F910C94010842
:100360006330F9F44A81698187EB91E00E94440986
:100370004C9971C069E471E08AE691E00E94BF0780
:100380004AE050E069818AE691E00E948B0866E0CD
:1003900071E08AE691E00E94E4074AE050E06A8159
:1003A000B1CF4C9958C062E371E0B9CF613099F494
:1003B0004C9928C062E271E08AE691E00E9401084F
:1003C0000E948604609364017093650180936601C6
:1003D0009093670117C04C993EC064E071E09FCFD5
:1003E0006130C1F44C9908C065EF70E08AE691E095
:1003F0000E9401080E94F40C40E060E087EB91E06D
:100400000E944409E0916801F0916901DF91CF9168
:100410001F9109944C991FC06FEC70E080CF4C99EC
:100420001AC06EEB70E08AE691E00E94BF07E0918F
:100430006A01F0916B01412F50E00280F381E02DC1
:10044000BE018AE691E009958AE691E0DF91CF91BD
:100450001F910C94ED07DF91CF911F91089587EBC9
:1004600091E00E94A90810926D0110926C0188EE33
:1004700093E0A0E0B0E080936E0190936F01A093B1
:100480007001B093710187E591E090936B018093C7
:100490006A01089587E591E090936B0180936A016A
:1004A0000C94EF0D0E94E70462E084E00E944B058B
:1004B00040E051EE60E070E089EC91E00E94C606F9
:1004C00061EA71E080E090E00E94B70B61E070E0CB
:1004D00080E090E00E94B50487EB91E00E948D0AD5
:1004E00062E087EB91E00E945D0944E067E087EB02
:1004F00091E00E94AA0848EE69E387EB91E00E9430
:10050000440942E050E06AE371E080E00E94C203E7
:100510006FE970E08AE691E00E9401080E9492046F
:100520006B017C0165E070E080E090E00E94B50422
:1005300068E071E089EC91E00E943E0119B11295EA
:100540001170D0E0C0E001E089B182958170802710
:100550008117A9F019B11295117010276FE870E09A
:100560008AE691E00E94BF074C9903C067E870E0FB
:1005700002C06EE770E08AE691E00E94010889EC13
:1005800091E0DD2361F10E94BA05892B79F089ECB5
:1005900091E00E94E705EC2FF0E0EA58FE4F8083DF
:1005A000CF5FC03209F065C0D0E05FC00E94920406
:1005B0006C197D098E099F09613D77408105910580
:1005C00008F495C0CC2329F06C2F86E791E00E94B7
:1005D00054010E9492046B017C01D0E087C00E940C
:1005E000BA05892B09F443C089EC91E00E94E70524
:1005F000EC2FF0E0EA58FE4F8083CF5FC03241F528
:100600004C9906C062E171E08AE691E00E943E01E9
:1006100040E266E771E087EB91E00E949B0AC82FF9
:100620004C990BC0882319F06BE171E002C069E1BD
:1006300071E08AE691E00E943E018091B601882334
:10064000E1F31092B6014C9910C0C1110EC093C0D5
:10065000C53079F445E050E06EE171E086E791E065
:100660000E94060E892B29F4D1E0C0E002C0C1111E
:1006700005C00E9492046B017C0139C00E94920463
:100680006C197D098E099F09613D774081059105AF
:1006900070F14C990DC064E271E08AE691E00E942D
:1006A0003E014AE050E06C2F8AE691E00E948B0800
:1006B0004C2F66E771E087EB91E00E949B0A9091D6
:1006C000B6019923E1F31092B6014C990BC088232F
:1006D00019F06BE171E002C069E171E08AE691E036
:1006E0000E943E010E9492046B017C01C0E0809157
:1006F000B601882309F428CF66E771E087EB91E023
:100700000E94060BB82E1092B601882359F18091F1
:10071000BB01811109C04C9917CF69E271E08AE6EB
:1007200091E00E943E0110CFE091C901F091CA0111
:100730004B2D50E00280F381E02D66E771E089ECFB
:1007400091E009954C9900CF68E371E08AE691E069
:100750000E943E014AE050E06B2D8AE691E00E9443
:100760009208F2CE4C99F0CE6CE371E08AE691E00B
:100770000E941308E9CE68E670E08AE691E00E94E4
:10078000010873CF8230E8F4E82FF0E0EE0FFF1F8E
:10079000E454FE4F71836083813041F080916900A1
:1007A0008C7F842B80936900E89A0895809169007A
:1007B000440F551F440F551F837F842B809369007E
:1007C000E99A08951F920F920FB60F9211242F935A
:1007D0003F934F935F936F937F938F939F93AF93C9
:1007E000BF93EF93FF938091BC019091BD01892B42
:1007F00029F0E091BC01F091BD010995FF91EF91C5
:10080000BF91AF919F918F917F916F915F914F9128
:100810003F912F910F900FBE0F901F9018951F9230
:100820000F920FB60F9211242F933F934F935F9324
:100830006F937F938F939F93AF93BF93EF93FF93A8
:100840008091BE019091BF01892B29F0E091BE01FA
:10085000F091BF010995FF91EF91BF91AF919F91E9
:100860008F917F916F915F914F913F912F910F9059
:100870000FBE0F901F9018951F920F920FB60F92F8
:1008800011242F933F938F939F93AF93BF938091A6
:10089000C1019091C201A091C301B091C4013091F6
:1008A000C00126E0230F2D3720F40296A11DB11DB3
:1008B00005C029E8230F0396A11DB11D2093C00197
:1008C0008093C1019093C201A093C301B093C4016E
:1008D0008091C5019091C601A091C701B091C80156
:1008E0000196A11DB11D8093C5019093C601A093EF
:1008F000C701B093C801BF91AF919F918F913F9174
:100900002F910F900FBE0F901F9018952FB7F8944E
:100910006091C1017091C2018091C3019091C401A5
:100920002FBF08953FB7F8948091C5019091C601FB
:10093000A091C701B091C80126B5A89B05C02F3F63
:1009400019F00196A11DB11D3FBF6627782F892F91
:100950009A2F620F711D811D911D43E0660F771F55
:10096000881F991F4A95D1F70895CF92DF92EF9291
:10097000FF92CF93DF936B017C010E949204EB0105
:10098000C114D104E104F10479F00E9492046C1BBB
:100990007D0B683E7340A0F381E0C81AD108E108DE
:1009A000F108C851DC4FECCFDF91CF91FF90EF9071
:1009B000DF90CF9008958130910541F00297009724
:1009C00029F0880F991F01970197F1F708957894FE
:1009D00084B5826084BD84B5816084BD85B5826044
:1009E00085BD85B5816085BDEEE6F0E080818160E2
:1009F0008083E1E8F0E010828081826080838081E2
:100A000081608083E0E8F0E0808181608083E1EBB9
:100A1000F0E0808184608083E0EBF0E080818160A1
:100A20008083EAE7F0E08081846080838081826057
:100A30008083808181608083808180688083109240
:100A4000C1000895833081F028F4813099F082301C
:100A5000A1F008958630A9F08730B9F08430D1F440
:100A6000809180008F7D03C0809180008F7780937C
:100A70008000089584B58F7702C084B58F7D84BDD2
:100A800008958091B0008F7703C08091B0008F7D72
:100A90008093B0000895CF93DF9390E0FC01E25281
:100AA000FE4F2491FC01EE50FE4F8491882349F1C2
:100AB00090E0880F991FFC01E05FFD4FA591B49174
:100AC0008A5F9D4FFC01C591D4919FB7611108C009
:100AD000F8948C91209582238C93888182230AC07C
:100AE000623051F4F8948C91322F309583238C939B
:100AF0008881822B888304C0F8948C91822B8C93FC
:100B00009FBFDF91CF9108950F931F93CF93DF93F2
:100B10001F92CDB7DEB7282F30E0F901E653FE4F24
:100B20008491F901E252FE4F1491F901EE50FE4F0B
:100B300004910023C9F0882321F069830E942205D3
:100B40006981E02FF0E0EE0FFF1FEA5FFD4FA591F6
:100B5000B4919FB7F8948C91611103C010958123D3
:100B600001C0812B8C939FBF0F90DF91CF911F917C
:100B70000F910895FC0124853585F901E05CFF4F54
:100B800080819181F901EE5BFF4F20813181821BD1
:100B9000930B8F7399270895FC0184859585FC013B
:100BA000E05CFF4F40815181FC01EE5BFF4F2081F3
:100BB00031814217530741F00190F081E02DE80F99
:100BC000F91F808190E008958FEF9FEF0895FC0159
:100BD00084859585FC01E05CFF4F40815181FC01DB
:100BE000EE5BFF4F208131814217530779F0A081DE
:100BF000B181A80FB91F8C91208131812F5F3F4FA8
:100C00002F7333273183208390E008958FEF9FEF78
:100C10000895FC0181A1882329F0A489B5898C91CC
:100C200086FFFBCF11A20895CF93DF93FC012685A9
:100C30003785D901A05CBF4F8D919C91119701968A
:100C40008F739927E901CE5BDF4F48815981841763
:100C50009507D9F30D90BC91A02DA20FB31F6C93F3
:100C6000A685B785A05CBF4F11969C938E93A689ED
:100C7000B7892C9181E090E0078C02C0880F991F02
:100C80000A94E2F7282B2C9381E081A30488F5894C
:100C9000E02D80818064808381E090E0DF91CF91BE
:100CA00008951F920F920FB60F9211242F933F9326
:100CB0004F938F939F93EF93FF938091C00082FD9A
:100CC0001CC04091C60080916F0290917002019605
:100CD0008F739927209171023091720282179307C6
:100CE00071F0E0916F02F0917002E15DFD4F408381
:100CF0009093700280936F0202C08091C600FF91B2
:100D0000EF919F918F914F913F912F910F900FBE37
:100D10000F901F9018951F920F920FB60F921124EB
:100D20002F933F938F939F93EF93FF9320912B02E9
:100D300030912C0280912D0290912E0228173907B4
:100D400031F48091C1008F7D8093C10014C0E09187
:100D50002D02F0912E02E551FE4F208180912D024F
:100D600090912E0201968F73992790932E02809373
:100D70002D022093C600FF91EF919F918F913F919B
:100D80002F910F900FBE0F901F901895CF92DF926A
:100D9000EF92FF92CF93DF93EC016A017B01EC8924
:100DA000FD8981E090E008A002C0880F991F0A9495
:100DB000E2F7808360E874E88EE190E0A701960195
:100DC0000E941E0E2150310941095109569547953F
:100DD00037952795211580E1380798F0EC89FD8932
:100DE000108260E472E48FE090E0A70196010E9417
:100DF0001E0E2150310941095109569547953795E5
:100E00002795E889F9893083EA89FB89208319A22B
:100E1000EE89FF89408181E090E09C010C8C02C04A
:100E2000220F331F0A94E2F7422B4083EE89FF8999
:100E300040819C010D8C02C0220F331F0A94E2F7FF
:100E4000422B4083EE89FF8940819C010E8C02C0B9
:100E5000220F331F0A94E2F7422B4083EE89FF8969
:100E600020810F8C02C0880F991F0A94E2F78095A9
:100E700082238083DF91CF91FF90EF90DF90CF901E
:100E800008951092CC011092CB0188EE93E0A0E07F
:100E9000B0E08093CD019093CE01A093CF01B093A9
:100EA000D00187E491E09093CA018093C9018FE259
:100EB00092E09093D6018093D5018BEE91E09093D0
:100EC000D8018093D70185EC90E09093DA0180936C
:100ED000D90184EC90E09093DC018093DB0180ECFD
:100EE00090E09093DE018093DD0181EC90E090939F
:100EF000E0018093DF0182EC90E09093E201809327
:100F0000E10186EC90E09093E4018093E30184E0BA
:100F10008093E50183E08093E60187E08093E70119
:100F200085E08093E80181E08093E9010895CF9204
:100F3000DF92EF92FF920F931F93CF93DF936C0199
:100F40007A01EB01E60EF71E00E010E0CE15DF059A
:100F500061F06991D601ED91FC910190F081E02D55
:100F6000C6010995080F191FF1CFC801DF91CF9174
:100F70001F910F91FF90EF90DF90CF900895EF9227
:100F8000FF920F931F93CF93DF938C01FB01C0E07F
:100F9000D0E064917F018FEFE81AF80A662361F0D0
:100FA000D801ED91FC910190F081E02DC8010995E7
:100FB000C80FD91FF701EDCFCE01DF91CF911F915F
:100FC0000F91FF90EF9008950C943E01DC01ED919C
:100FD000FC910190F081E02D09940F931F93CF9322
:100FE000DF93EC016DE00E94E6078C016AE0CE0120
:100FF0000E94E607800F911FDF91CF911F910F9103
:1010000008950F931F93CF93DF93EC010E94BF07C6
:101010008C01CE010E94ED07800F911FDF91CF91CF
:101020001F910F9108950F931F93CF93DF93EC01BE
:101030000E943E018C01CE010E94ED07800F911F9E
:10104000DF91CF911F910F9108958F929F92AF9250
:10105000BF92CF92DF92EF92FF920F931F93CF93A5
:10106000DF93CDB7DEB7A1970FB6F894DEBF0FBE02
:10107000CDBF7C01C42EE52FCB01D22E19A221E0D9
:101080002D1510F02AE0D22E8E010F5D1F4F8D2CF2
:10109000912CA12CB12C6C2D7E2FA50194010E94C6
:1010A0001E0E8C2DD29E80191124015011098A30F8
:1010B00014F4805D01C0895CF8018083211531053D
:1010C0004105510521F0C22EE32FCA01E4CFB8013A
:1010D000C7010E943E01A1960FB6F894DEBF0FBE75
:1010E000CDBFDF91CF911F910F91FF90EF90DF90D7
:1010F000CF90BF90AF909F908F90089521153105AC
:1011000041F4DC01ED91FC910190F081E02D642F20
:1011100009940C9425089A01462F50E060E070E095
:101120000C947E080F931F93CF93DF93EC019A01E9
:10113000462F50E060E070E00E947E088C01CE01F6
:101140000E94ED07800F911FDF91CF911F910F91AA
:10115000089508950F931F93CF93DF931F92CDB7F8
:10116000DEB78C012A981C99FECFC80149830E94E2
:10117000790B4981642FC8010E94790B2A9A0F903C
:10118000DF91CF911F910F910895CF92DF92EF924F
:10119000FF920F931F93CF93DF9300D0CDB7DEB7AD
:1011A0008C01F22E60642A981C99FECFC8014983F5
:1011B0005A830E94790B4981E42EC42E5A81D52E80
:1011C0008C2D8E198F1538F4F60161916F01C801CD
:1011D0000E94790BF5CF2A9A0F900F90DF91CF9153
:1011E0001F910F91FF90EF90DF90CF9008952A9874
:1011F0001C99FECF0E94790B2A9A0895CF93DF9312
:10120000EC01642B2A981C99FECFCE010E94790B29
:1012100060E0CE010E94790B2A9ADF91CF91089568
:10122000AF92BF92DF92EF92FF920F931F93CF93F3
:10123000DF931F92CDB7DEB78C01F62EE22E406C05
:101240002A981C99FECF642FC80179830E94790BDC
:10125000DF2CAF2C7981B72E8A2D8D198E1540F495
:1012600060E0C8010E94790BF50181935F01F4CF22
:101270002A9A0F90DF91CF911F910F91FF90EF90DD
:10128000DF90BF90AF9008951F93CF93DF93EC0151
:10129000142F462F64E00E94AA08412F65E0CE017A
:1012A000DF91CF911F910C94AA08462F69E00C940E
:1012B000AA08462F6AE00C94AA08CF93DF93EC01AA
:1012C000613069F06230B1F440E16DE00E94AA083B
:1012D00047EA6EE0CE010E94AA0842E615C042E24B
:1012E0006DE00E94AA0841EB6EE0CE010E94AA08C0
:1012F0004BE30AC041E26DE00E94AA0842E66EE0BC
:10130000CE010E94AA0846E76FE0CE01DF91CF919F
:101310000C94AA08CF93DF93EC014EE260E00E94A8
:10132000AA084EE261E0CE010E94AA0846E062E00F
:10133000CE010E94AA0847E063E0CE010E94AA08FD
:101340004DE366E0CE010E94AA0844E067E0CE01CA
:101350000E94AA0845E068E0CE010E94AA0847E47E
:1013600065EBCE010E9444096FEFCE010E94550942
:1013700060E0CE010E94590948E06BE0CE010E9476
:10138000AA0840E06CE0CE010E94AA0862E0CE010B
:101390000E945D094AEC60E1CE010E94AA0843E880
:1013A00061E1CE010E94AA0843E962E1CE010E94F8
:1013B000AA0842E263E1CE010E94AA0848EF64E174
:1013C000CE010E94AA0845E365E1CE010E94AA0869
:1013D00047E066E1CE010E94AA0840E267E1CE0143
:1013E0000E94AA0848E168E1CE010E94AA0846E1ED
:1013F00069E1CE010E94AA084CE66AE1CE010E9492
:10140000AA0843E46BE1CE010E94AA0840E46CE123
:10141000CE010E94AA0841E96DE1CE010E94AA080E
:1014200047E86EE1CE010E94AA084BE66FE1CE01CB
:101430000E94AA084BEF60E2CE010E94AA0846E58E
:1014400061E2CE010E94AA0840E162E2CE010E9460
:10145000AA0849EE63E2CE010E94AA084AE264E2C9
:10146000CE010E94AA0840E065E2CE010E94AA08CF
:101470004FE166E2CE010E94AA0841E467E2CE0194
:101480000E94AA0840E068E2CE010E94AA0849E54D
:1014900069E2CE010E94AA084FE76AE2CE010E94EB
:1014A000AA084FE36BE2CE010E94AA0841E86CE271
:1014B000CE010E94AA0845E36DE2CE010E94AA086F
:1014C00049E06EE2CE010E94AA0840EC6EE3CE0134
:1014D000DF91CF910C94AA08CF93DF93EC012A9A65
:1014E00085E090E00E94DB042A988AE090E00E9468
:1014F000DB042A9A89E290E00E94DB042A981C9976
:10150000FECF60E3CE010E94790B1C99FECF2A9A90
:10151000CE01DF91CF910C948A09CF93DF93EC0138
:101520000E945A0B60E082E00E944B05CE01DF91E1
:10153000CF910C946C0AFF920F931F93CF93DF937C
:10154000EC018B01F42E8DE3841710F48DE3F82E5B
:1015500064E3CE010E94F70840EC65E3CE010E94EF
:10156000FE08982F9F719D3021F08131A9F76AE321
:10157000F0CF84EF91E00E94DB044F2D6FE3CE01AA
:101580000E94AA082F2DA8016FE3CE010E94C50872
:1015900065E3CE010E94F70840EC65E3CE010E94AE
:1015A000FE088F718351833070F066E3CE010E9494
:1015B000F7086BE3CE010E94F70864E3CE010E94B6
:1015C000F70880E01DC04A9BFECF4A99FECF00007D
:1015D000198240EC6AE3CE010E94FE088F7751F039
:1015E0006BE3CE010E94F70866E3CE010E94F70884
:1015F00010E001C011E064E3CE010E94F708812FE2
:10160000DF91CF911F910F91FF900895FF920F935B
:101610001F93CF93DF93EC018B016115710509F4E2
:1016200042C040EC6BE30E94FE08982F9F7711F4B4
:10163000F12C2BC087FDFCCF40E86FE3CE010E9468
:10164000FE08F82E8FEF8F0D8D3390F72F2D4FE37F
:10165000B801CE010E94100940E86FE3CE010E945C
:10166000FE0887FD80958A839A819695965B9A837A
:1016700040E86FE3CE010E94FE08982F9F779B837E
:10168000982F991F9927991F9C8366E3CE010E948A
:10169000F7086AE3CE010E94F70864E3CE010E94D6
:1016A000F7088F2D01C080E0DF91CF911F910F913E
:1016B000FF90089561E08AE00E94840561E08AE07D
:1016C0000E944B0561E08BE00E944B0560E08CE0DE
:1016D0000E944B0561E08DE00E944B0561E08DE0CA
:1016E0000E94840560E08BE00E94840580E58CBD4B
:1016F00008956EBD0DB407FEFDCF8EB5089580919F
:101700000D0390910C03891769F09F5F903508F0E5
:1017100090E0E92FF0E0E454FD4F808190930C03BA
:1017200090E008958FEF9FEF089580910D03E09171
:101730000C038E1751F0EF5FE03508F0E0E0F0E0C9
:10174000E454FD4F808190E008958FEF9FEF08955E
:1017500050910D0340910C03852F90E0242F30E031
:10176000541710F4805B9F4F821B930B08959B01CD
:10177000AC01213688E138074105510530F410925B
:101780006F001092800081E825C073E05695479560
:10179000379527957A95D1F7213688E138074105A5
:1017A000510530F410926F001092800082E812C050
:1017B00065E056954795379527956A95D1F7213677
:1017C00088E1380741055105B0F510926F0010927D
:1017D000800084E8809381003093160320931503E2
:1017E000A5E2B0E00E94130E22E0969587957795CA
:1017F00067952A95D1F770930F0360930E0362E00B
:1018000088E00E944B0561E089E00E94840561E068
:1018100089E00E944B051092140310920D03109260
:101820000C031092BB021092B8021092B70280E231
:1018300086BB80936F0008959091B8029F5F9434A7
:1018400008F090E02091B7022917E1F32FB7F89440
:101850003091BB02332341F0E92FF0E0ED58FD4F0A
:1018600080839093B8021DC091E09093BB02809357
:10187000BA021092B90282E086BB80916F0082604A
:1018800080936F00809180008F73806880938000C8
:101890008091840090918500409690938900809378
:1018A00088002FBF0895862F0E941C0C81E090E0D5
:1018B00008951F920F920FB60F9211242F933F930A
:1018C0004F935F936F937F938F939F93EF93FF93C8
:1018D0004091BB025091BA0280918800909189009A
:1018E00020911503309116037091B9024A3008F522
:1018F000820F931F493019F0652F617001C061E0BC
:1019000056954F5F671791F320918000662311F081
:10191000206C02C02F732068209380009093890070
:10192000809388006093B9025093BA024093BB023F
:101930004CC05091B802E091B7025E1319C04A3012
:1019400051F44BE04093BB02820F931F90938900A8
:10195000809388003AC01092BB02809180008F7300
:101960008093800080916F008D7F80936F002DC0E9
:10197000EF5FE43408F0E0E0E093B702F0E0ED5808
:10198000FD4F20812093BA021092B902209180006D
:101990002F732068209380004A3059F4209115035A
:1019A00030911603280F391F309389002093880047
:1019B00009C08091840090918500409690938900A1
:1019C0008093880081E08093BB02FF91EF919F910B
:1019D0008F917F916F915F914F913F912F910F90D8
:1019E0000FBE0F901F9018958091BB028111FCCF04
:1019F00008950C94F40C1F920F920FB60F921124BD
:101A00002F933F934F935F936F937F938F939F9306
:101A1000AF93EF93FF934091860050918700909190
:101A2000120380918100992331F08F7B8093810094
:101A30001092120306C080648093810080E8809336
:101A40001203E0911403E11125C091116CC0809143
:101A50000E0390910F03840F951F90938B0080933A
:101A60008A0084E086BB80916F00846080936F0061
:101A70008091150390911603480F591F96958795ED
:101A8000480F591F509311034093100381E0809336
:101A9000140349C080911003909111032091150304
:101AA00030911603B90160957095A0911203F091E1
:101AB0001303481B590B6417750768F1F695FA2B49
:101AC000820F931FEF5F421B530BE930A0F3F0939B
:101AD000130380916F008B7F80936F0080910D03C3
:101AE0008F5F803508F080E090910C03891749F0F2
:101AF000E82FF0E090911303E454FD4F908380931E
:101B00000D03809181008F7B8093810010921203DE
:101B10001092140308C0F093130390931103809361
:101B20001003E0931403FF91EF91AF919F918F9178
:101B30007F916F915F914F913F912F910F900FBEC9
:101B40000F901F9018951F920F920FB60F921124AD
:101B50002F938F939F93EF93FF9380916F008B7FD1
:101B600080936F00809181008F7B809381008091B2
:101B7000140320911203205890911303893020F40C
:101B800096958F5F922BFACF9093130380910D035C
:101B90008F5F803508F080E020910C03821739F0C8
:101BA000E82FF0E0E454FD4F908380930D031092F2
:101BB0001403809181008F7B809381001092120327
:101BC000FF91EF919F918F912F910F900FBE0F90EA
:101BD0001F90189580910C0380930D030895CF9367
:101BE000DF93CFE6D0E088818B7F888388818F7DEB
:101BF00088830E94EA0D0E94F40C88818D7F88837F
:101C0000DF91CF910895F8940C94550EFB01DC01FF
:101C100004C08D910190801921F441505040C8F7C3
:101C2000881B990B08950E94400EA59F900DB49FAC
:101C3000900DA49F800D911D11240895A1E21A2EEC
:101C4000AA1BBB1BFD010DC0AA1FBB1FEE1FFF1F60
:101C5000A217B307E407F50720F0A21BB30BE40BB0
:101C6000F50B661F771F881F991F1A9469F76095F7
:101C70007095809590959B01AC01BD01CF010895B1
:101C8000A29FB001B39FC001A39F700D811D1124BD
:101C9000911DB29F700D811D1124911D0895EE0FAD
:101CA000FF1F0590F491E02D099412E0CEE1D2E0FF
:101CB00004C0FE010E94510E2296C032D107C9F71E
:041CC000F894FFCFC6
:101CC4000000170320002C005553423252465F3067
:101CD40031006F75742033320020460D0A00434FE3
:101CE4004D4D44006F75742000696E2043524320AB
:101CF4006572726F720D0A00696E2000696E203081
:101D04002021000000000014069707BA05E705CC5F
:101D140005090600000000530C9707A80B7F0B95DC
:041D24000BF90C00AB
:00000001FF
