:100000000C947C010C940B060C9438060C94A401FF
:100010000C94A4010C94A4010C94A4010C94A401CC
:100020000C94A4010C94A4010C94FB0F0C94590F94
:100030000C94A3100C94A4010C94A4010C94A4019E
:100040000C9465060C94A4010C947A080C94B408E2
:100050000C94A4010C94A4010C94A4010C94A4018C
:100060000C94A4010C94A40153656E64696E67201E
:100070007061636B6574206661696C6564006469B6
:100080007361626C656400656E61626C65640064D6
:1000900065627567206D65737361676573200055D0
:1000A000736232726620646562756720706F727465
:1000B0002061742031393230302062707300556E07
:1000C0006B6E6F776E20636F6D6D616E6420005391
:1000D0006F66747761726520726573657420636FF3
:1000E0006D6D616E642C20626164206C656E677456
:1000F00068203A2000536F667477617265207265DC
:100100007365740055706C6F616420636F64652063
:10011000636F6D6D616E642C20626164206C656E2E
:10012000677468203A200053776974636820746F9D
:100130002075706C6F6164206D6F6465005573622B
:10014000327266206D6F64756C65206661696C65DE
:100150006420746F20726573657400555342207477
:100160006F205246205265736574004D43552072CE
:100170006573657420636F6D6D616E642077726F57
:100180006E672073697A65203A200053696C656E4A
:100190007420636F6D6D616E642C20626164206CED
:1001A000656E677468203A200053696C656E742030
:1001B000666F722035306D73006368616E6E656CBA
:1001C0003D004368616E6E656C20636F6D6D616E9E
:1001D000642077726F6E672073697A65203A200019
:1001E0006363313130312077726F6E6720636D64E5
:1001F0002073697A65200053796E63776F7264208B
:100200003D200053657269616C2E617661696C6195
:10021000626C6528293D00202E476F7420004552EE
:10022000524F523A20657870656374656420524677
:10023000425F53454E445F504B5400206F72200084
:100240002C20627574206578706563746564200085
:100250003A2050726F746F636F6C206572726F72A8
:100260002E206170705F6964783D006F6B206E6551
:10027000787420706B74003A20526573656E640068
:10028000706B74206F7574203A206964783D005358
:100290003D0075706C6F61643A2054696D656F75CF
:1002A00074000000000700020100000304060000C3
:1002B000000000000000010204081020408001023C
:1002C000040810200102040810200404040404049B
:1002D00004040202020202020303030303030000F8
:1002E0000000250028002B0000000000240027004B
:1002F0002A00C7016A09E20111241FBECFEFD8E02E
:10030000DEBFCDBF11E0A0E0B1E0E4ECF2E202C05C
:1003100005900D92AC36B107D9F712E0ACE6B1E02A
:1003200001C01D92AF3DB107E1F712E0C6EFD2E088
:1003300004C02297FE010E945111C23FD107C9F7A4
:100340000E946B040C9403110C94000081E08093D4
:100350007E0108956115710581F0DB010D9000208B
:10036000E9F7AD0141505109461B570BDC01ED91F6
:10037000FC910280F381E02D099480E090E00895E3
:10038000DC01ED91FC910190F081E02D09948FE763
:1003900091E00E94A90B109275011092740188EEF1
:1003A00093E0A0E0B0E08093760190937701A09372
:1003B0007801B09379018FE591E090937301809378
:1003C000720108958FE591E090937301809372011B
:1003D0000C94EF1081E991E00E9410080196D1F78A
:1003E00008958F929F92AF92BF92CF92DF92EF9239
:1003F000FF920F931F93CF93DF93CDB7DEB7C05813
:10040000D1090FB6F894DEBF0FBECDBF8C010E949C
:10041000AF066B017C0166E071E081E991E00E942A
:10042000AA01812C992493940E94AF066C197D092E
:100430008E099F096B3F71058105910548F04C9924
:1004400038C162E972E082E791E00E94E80931C1B7
:1004500081102CC181E991E00E94E30780970CF4A0
:1004600043C040E250E0BE016F5B7F4F81E991E005
:100470000E94860B60E570E081E991E00E94C00176
:100480004C9911C06FE872E082E791E00E94E809A0
:1004900081E991E00E94E3074AE050E0BC0182E775
:1004A00091E00E94F90A992009F4FDC040E2BE01E2
:1004B0006F5B7F4F8FE791E00E949B0D4C990DC0C1
:1004C00060E872E082E791E00E94E8094AE050E0CB
:1004D000B80182E791E00E94420B0032110509F455
:1004E000BAC088248394912C80917E01882309F4DA
:1004F0009BCFBE016F5F7F4F8FE791E00E94060E9A
:1005000010927E01833009F09DC080918301882381
:1005100009F498C00E94AF066B017C01B98084E0A9
:10052000B8126DC08A81AB80B12CBA2CAA24A80E57
:10053000B11CA016B106F9F440E2BE016F5B7F4F1B
:100540008FE791E00E949B0D62E570E081E991E008
:100550000E94C0014C9978C04AE050E060E970E028
:1005600082E791E00E94F10A67E772E082E791E09A
:100570000E94E80969C0480180E2881A9108A8141D
:10058000B90449F44C9962C06BE672E082E791E0ED
:100590000E942A0A5BC04C992FC04AE050E065EAED
:1005A00070E082E791E00E94F10A60E572E082E784
:1005B00091E00E94E8094AE050E0B50182E791E04D
:1005C0000E943C0B60E472E082E791E00E94E8093F
:1005D0004AE050E0B40182E791E00E943C0B6BE3FB
:1005E00072E082E791E00E94E8094AE050E0B80139
:1005F00082E791E00E943C0B0E94EA015AC04C99AC
:10060000FBCF68E071E082E791E00E940D0A4AE0CA
:1006100050E0B80182E791E00E94420B6EE172E087
:1006200082E791E00E94E80967E172E082E791E0E9
:100630000E94E8094AE050E06B2D82E791E00E94B9
:10064000250BDACF580105C0912C03C0812C9924C9
:1006500093948501E9CE65E470E081E991E00E9420
:10066000C0014C9926C068E071E082E791E00E94E9
:100670000D0A4AE050E060E270E082E791E00E94FB
:10068000420B63E072E082E791E00E94E80981E9B1
:1006900091E00E94E3074AE050E0BC0182E791E06C
:1006A0000E94F90A06C0882483941ECF9110FECEC2
:1006B0001BCFC058DF4F0FB6F894DEBF0FBECDBFC3
:1006C000DF91CF911F910F91FF90EF90DF90CF902E
:1006D000BF90AF909F908F9008951F93CF93DF931B
:1006E000EC01162F8881823509F47BC050F48334E5
:1006F00009F444C0813509F45AC0813409F0CBC0F3
:100700000AC0873509F4E3C08A3509F4A5C08535E8
:1007100009F0C1C086C06330F9F44A8169818FE76E
:1007200091E00E94440C4C99D2C067EF71E082E7DF
:1007300091E00E94E8094AE050E0698182E791E097
:100740000E941E0B61E171E082E791E00E940D0AB8
:100750004AE050E06A810BC04C99B9C060EE71E08C
:1007600082E791E00E94E8094AE050E0612F82E7C9
:1007700091E0DF91CF911F910C94250B623029F00D
:100780004C99A5C062EC71E0EBCFC9816C2F8FE76B
:1007900091E00E94590C4C999AC069EB71E082E794
:1007A00091E00E94E8094AE050E06C2FE0CF613010
:1007B00099F44C9963C069EA71E082E791E00E9484
:1007C0002A0A0E94AF0660936C0170936D018093BA
:1007D0006E0190936F0152C04C9979C06BE871E043
:1007E000BFCF613029F04C9972C06BE671E0B8CF91
:1007F0004C9906C06BE571E082E791E00E942A0AFD
:1008000040E060E08FE791E00E94440C5B98539ACF
:100810006DE371E082E791E0DF91CF911F910C943D
:100820002A0A6330A1F44C9906C067E271E082E7BE
:1008300091E00E942A0A29818A8190E0982F8827D6
:10084000820F911DDF91CF911F910C94F1014C9972
:100850003EC064E071E084CF6130C1F44C9908C0BF
:1008600065EF70E082E791E00E942A0A0E94F40F8F
:1008700040E060E08FE791E00E94440CE09170015D
:10088000F0917101DF91CF911F9109944C991FC094
:100890006FEC70E065CF4C991AC06EEB70E082E7A8
:1008A00091E00E94E809E0917201F0917301412FFB
:1008B00050E00280F381E02DBE0182E791E00995CE
:1008C00082E791E0DF91CF911F910C94160ADF919E
:1008D000CF911F910895CF93DF93CDB7DEB7C0546A
:1008E000D1090FB6F894DEBF0FBECDBF0E9410072E
:1008F00062E084E00E94740740E051EE60E070E046
:1009000081E991E00E94EF0861EA71E080E090E007
:100910000E94B70E61E070E080E090E00E94DE0689
:100920008FE791E00E948D0D44E067E08FE791E052
:100930000E94AA0B48EE69E38FE791E00E94440C05
:1009400042E050E066EA71E080E00E94EB054C99DD
:1009500006C06FE970E082E791E00E942A0A0E94D7
:10096000BB066B017C0165E070E080E090E00E94D6
:10097000DE0663E171E081E991E00E94AA01B12CF9
:1009800000E010E0AA24A39489B1829581708A25A1
:100990008B15B1F0B9B0B4FABB24B0F8BA246FE843
:1009A00070E082E791E00E94E8094C9903C067E893
:1009B00070E002C06EE770E082E791E00E942A0AD0
:1009C00081E991E0002371F10E94E307892B89F00E
:1009D00081E991E00E941008E1E0F0E0EC0FFD1FDA
:1009E000E10FF11D80831F5F103209F068C000E045
:1009F00062C00E94BB066C197D098E099F09613D8A
:100A000077408105910508F499C0112329F0612FE1
:100A1000CE0101960E946D030E94BB066B017C0112
:100A200000E08BC00E94E307892B09F446C081E9EE
:100A300091E00E941008E1E0F0E0EC0FFD1FE10FF3
:100A4000F11D80831F5F103249F54C9906C06AE1A1
:100A500071E082E791E00E94AA0140E2BE016F5F6F
:100A60007F4F8FE791E00E949B0D182F4C990BC090
:100A7000882319F063E271E002C061E271E082E76D
:100A800091E00E94AA0180917E018823E1F31092F7
:100A90007E014C9910C011110EC096C0153079F42A
:100AA00045E050E066E271E0CE0101960E94061139
:100AB000892B29F401E010E002C0111105C00E9449
:100AC000BB066B017C013AC00E94BB066C197D0914
:100AD0008E099F09613D77408105910578F14C9918
:100AE0000DC06CE271E082E791E00E94AA014AE049
:100AF00050E0612F82E791E00E941E0B412FBE0162
:100B00006F5F7F4F8FE791E00E949B0D90917E0178
:100B10009923E1F310927E014C990BC0882319F0C0
:100B200063E271E002C061E271E082E791E00E945D
:100B3000AA010E94BB066B017C0110E080917E013E
:100B4000882309F421CFBE016F5F7F4F8FE791E0CB
:100B50000E94060E982E10927E01882361F18091EA
:100B60008301811109C04C990FCF61E371E082E7E5
:100B700091E00E94AA0108CFE0919101F0919201C9
:100B8000492D50E00280F381E02DBE016F5F7F4F61
:100B900081E991E009954C99F7CE60E471E082E734
:100BA00091E00E94AA014AE050E0692D82E791E0BD
:100BB0000E94250BE9CE4C99E7CE64E471E082E710
:100BC00091E00E943C0AE0CE68E670E082E791E0A6
:100BD0000E942A0A70CF8230E8F4E82FF0E0EE0F8E
:100BE000FF1FEC57FE4F71836083813041F080918D
:100BF00069008C7F842B80936900E89A0895809126
:100C00006900440F551F440F551F837F842B809329
:100C10006900E99A08951F920F920FB60F9211245E
:100C20002F933F934F935F936F937F938F939F93F4
:100C3000AF93BF93EF93FF938091840190918501CF
:100C4000892B29F0E0918401F09185010995FF91AC
:100C5000EF91BF91AF919F918F917F916F915F9134
:100C60004F913F912F910F900FBE0F901F901895AD
:100C70001F920F920FB60F9211242F933F934F9311
:100C80005F936F937F938F939F93AF93BF93EF93F4
:100C9000FF938091860190918701892B29F0E09143
:100CA0008601F09187010995FF91EF91BF91AF9176
:100CB0009F918F917F916F915F914F913F912F9174
:100CC0000F900FBE0F901F9018951F920F920FB6A6
:100CD0000F9211242F933F938F939F93AF93BF93C2
:100CE0008091890190918A01A0918B01B0918C0132
:100CF0003091880126E0230F2D3720F40296A11DA4
:100D0000B11D05C029E8230F0396A11DB11D209335
:100D100088018093890190938A01A0938B01B093FD
:100D20008C0180918D0190918E01A0918F01B091E5
:100D300090010196A11DB11D80938D0190938E01AC
:100D4000A0938F01B0939001BF91AF919F918F912C
:100D50003F912F910F900FBE0F901F9018952FB7B6
:100D6000F8946091890170918A0180918B01909132
:100D70008C012FBF08953FB7F89480918D01909119
:100D80008E01A0918F01B091900126B5A89B05C05E
:100D90002F3F19F00196A11DB11D3FBF6627782F87
:100DA000892F9A2F620F711D811D911D43E0660FDF
:100DB000771F881F991F4A95D1F70895CF92DF9228
:100DC000EF92FF92CF93DF936B017C010E94BB06F1
:100DD000EB01C114D104E104F10479F00E94BB06D7
:100DE0006C1B7D0B683E7340A0F381E0C81AD108EC
:100DF000E108F108C851DC4FECCFDF91CF91FF90B3
:100E0000EF90DF90CF9008958130910541F00297E7
:100E1000009729F0880F991F01970197F1F708951E
:100E2000789484B5826084BD84B5816084BD85B5C5
:100E3000826085BD85B5816085BDEEE6F0E080818C
:100E400081608083E1E8F0E01082808182608083AD
:100E5000808181608083E0E8F0E080818160808330
:100E6000E1EBF0E0808184608083E0EBF0E0808162
:100E700081608083EAE7F0E0808184608083808104
:100E800082608083808181608083808180688083AC
:100E90001092C1000895833081F028F4813099F0D8
:100EA0008230A1F008958630A9F08730B9F08430FF
:100EB000D1F4809180008F7D03C0809180008F7776
:100EC00080938000089584B58F7702C084B58F7DAC
:100ED00084BD08958091B0008F7703C08091B000E9
:100EE0008F7D8093B0000895CF93DF9390E0FC0155
:100EF000EA54FD4F2491FC01E653FD4F8491882371
:100F000049F190E0880F991FFC01E851FD4FA59130
:100F1000B49182529D4FFC01C591D4919FB761114C
:100F200008C0F8948C91209582238C938881822329
:100F30000AC0623051F4F8948C91322F309583239B
:100F40008C938881822B888304C0F8948C91822BA7
:100F50008C939FBFDF91CF9108950F931F93CF93F1
:100F6000DF931F92CDB7DEB7282F30E0F901EE55A1
:100F7000FD4F8491F901EA54FD4F1491F901E653B4
:100F8000FD4F04910023C9F0882321F069830E945A
:100F90004B076981E02FF0E0EE0FFF1FE252FD4F9B
:100FA000A591B4919FB7F8948C91611103C01095ED
:100FB000812301C0812B8C939FBF0F90DF91CF9134
:100FC0001F910F910895FC0124853585F901E05C9E
:100FD000FF4F80819181F901EE5BFF4F20813181CC
:100FE000821B930B8F7399270895FC018485958547
:100FF000FC01E05CFF4F40815181FC01EE5BFF4F43
:10100000208131814217530741F00190F081E02D9A
:10101000E80FF91F808190E008958FEF9FEF08950A
:10102000FC0184859585FC01E05CFF4F4081518186
:10103000FC01EE5BFF4F208131814217530779F0AD
:10104000A081B181A80FB91F8C91208131812F5FC0
:101050003F4F2F7333273183208390E008958FEF24
:101060009FEF0895FC0181A1882329F0A489B58907
:101070008C9186FFFBCF11A20895CF93DF93FC01E3
:1010800026853785D901A05CBF4F8D919C91119722
:1010900001968F739927E901CE5BDF4F4881598113
:1010A00084179507D9F30D90BC91A02DA20FB31F03
:1010B0006C93A685B785A05CBF4F11969C938E93C9
:1010C000A689B7892C9181E090E0078C02C0880F37
:1010D000991F0A94E2F7282B2C9381E081A30488BE
:1010E000F589E02D80818064808381E090E0DF914C
:1010F000CF9108951F920F920FB60F9211242F9344
:101100003F934F938F939F93EF93FF938091C000F2
:1011100082FD1CC04091C600809137029091380238
:1011200001968F7399272091390230913A028217E4
:10113000930771F0E0913702F0913802E950FE4FC9
:101140004083909338028093370202C08091C6009A
:10115000FF91EF919F918F914F913F912F910F9020
:101160000FBE0F901F9018951F920F920FB60F92FF
:1011700011242F933F938F939F93EF93FF9320918D
:10118000F3013091F4018091F5019091F601281757
:10119000390731F48091C1008F7D8093C10014C064
:1011A000E091F501F091F601ED54FE4F2081809120
:1011B000F5019091F60101968F7399279093F601AE
:1011C0008093F5012093C600FF91EF919F918F913D
:1011D0003F912F910F900FBE0F901F901895CF92B7
:1011E000DF92EF92FF92CF93DF93EC016A017B01D4
:1011F000EC89FD8981E090E008A002C0880F991F6A
:101200000A94E2F7808360E874E88EE190E0A70139
:1012100096010E941E11215031094109510956952C
:10122000479537952795211580E1380798F0EC8987
:10123000FD89108260E472E48FE090E0A7019601DE
:101240000E941E11215031094109510956954795B7
:1012500037952795E889F9893083EA89FB892083C6
:1012600019A2EE89FF89408181E090E09C010C8CFD
:1012700002C0220F331F0A94E2F7422B4083EE890B
:10128000FF8940819C010D8C02C0220F331F0A94FC
:10129000E2F7422B4083EE89FF8940819C010E8C4E
:1012A00002C0220F331F0A94E2F7422B4083EE89DB
:1012B000FF8920810F8C02C0880F991F0A94E2F7E2
:1012C000809582238083DF91CF91FF90EF90DF9014
:1012D000CF900895109294011092930188EE93E0BC
:1012E000A0E0B0E08093950190939601A0939701C0
:1012F000B09398018FE491E09093920180939101D3
:1013000087EF91E090939E0180939D0183EB91E0A4
:101310009093A00180939F0185EC90E09093A201AF
:101320008093A10184EC90E09093A4018093A301A9
:1013300080EC90E09093A6018093A50181EC90E071
:101340009093A8018093A70182EC90E09093AA016A
:101350008093A90186EC90E09093AC018093AB015F
:1013600084E08093AD0183E08093AE0187E08093B9
:10137000AF0185E08093B00181E08093B1010895D1
:10138000CF92DF92EF92FF920F931F93CF93DF9351
:101390006C017A01EB01E60EF71E00E010E0CE15BD
:1013A000DF0561F06991D601ED91FC910190F0812A
:1013B000E02DC6010995080F191FF1CFC801DF9173
:1013C000CF911F910F91FF90EF90DF90CF900895F4
:1013D000EF92FF920F931F93CF93DF938C01FB014A
:1013E000C0E0D0E064917F018FEFE81AF80A66232D
:1013F00061F0D801ED91FC910190F081E02DC801E0
:101400000995C80FD91FF701EDCFCE01DF91CF911C
:101410001F910F91FF90EF9008950C94AA01DC01A9
:10142000ED91FC910190F081E02D09940F931F93B1
:10143000CF93DF93EC016DE00E940F0A8C016AE00C
:10144000CE010E940F0A800F911FDF91CF911F9153
:101450000F9108950F931F93CF93DF93EC010E9498
:10146000E8098C01CE010E94160A800F911FDF91BE
:10147000CF911F910F9108950F931F93CF93DF93F7
:10148000EC010E94AA018C01CE010E94160A800F75
:10149000911FDF91CF911F910F9108958F929F928D
:1014A000AF92BF92CF92DF92EF92FF920F931F9372
:1014B000CF93DF93CDB7DEB7A1970FB6F894DEBF19
:1014C0000FBECDBF7C01C42EE52FCB01D22E19A2B9
:1014D00021E02D1510F02AE0D22E8E010F5D1F4F56
:1014E0008D2C912CA12CB12C6C2D7E2FA50194015B
:1014F0000E941E118C2DD29E8019112401501109B9
:101500008A3014F4805D01C0895CF8018083211564
:1015100031054105510521F0C22EE32FCA01E4CF68
:10152000B801C7010E94AA01A1960FB6F894DEBFC8
:101530000FBECDBFDF91CF911F910F91FF90EF9024
:10154000DF90CF90BF90AF909F908F900895CF92F3
:10155000DF92EF92FF920F931F93CF93DF93EC01F3
:101560006A017B012115310579F4E881F981019047
:10157000F081E02D642FDF91CF911F910F91FF90AB
:10158000EF90DF90CF9009942A303105E9F477FF8E
:101590001AC06DE20E940F0A8C0144275527BA0138
:1015A0004C195D096E097F092AE0CE010E944E0A9E
:1015B000800F911FDF91CF911F910F91FF90EF90BE
:1015C000DF90CF9008952AE0B701A601CE01DF9108
:1015D000CF911F910F91FF90EF90DF90CF900C94DF
:1015E0004E0A9A01AB01662757FD6095762F0C9441
:1015F000A70A0F931F93CF93DF93EC019A01AB01DE
:10160000662757FD6095762F0E94A70A8C01CE01B0
:101610000E94160A800F911FDF91CF911F910F91A9
:1016200008952115310541F4DC01ED91FC91019003
:10163000F081E02D642F09940C944E0A9A01462FF4
:1016400050E060E070E00C94110B0F931F93CF9368
:10165000DF93EC019A01462F50E060E070E00E94B9
:10166000110B8C01CE010E94160A800F911FDF9191
:10167000CF911F910F9108959A01AB0160E070E046
:101680000C94110B0F931F93CF93DF93EC019A01EE
:10169000AB0160E070E00E94110B8C01CE010E9452
:1016A000160A800F911FDF91CF911F910F9108951E
:1016B0000F931F93CF93DF93EC010E94AF066887CF
:1016C00079878A879B87E881F9810680F781E02DF9
:1016D000CE01099597FF15C00E94AF0608851985B0
:1016E0002A853B85601B710B820B930B0C811D813E
:1016F0002E813F81601771078207930720F38FEFD8
:101700009FEFDF91CF911F910F910895CF92DF92BC
:10171000EF92FF920F931F93CF93DF937C016A01A7
:10172000EB0100E010E00C151D0549F0C7010E9417
:10173000580B97FD04C089930F5F1F4FF4CFC8016A
:10174000DF91CF911F910F91FF90EF90DF90CF909D
:10175000089508950F931F93CF93DF931F92CDB7F2
:10176000DEB78C012A981C99FECFC80149830E94DC
:10177000790E4981642FC8010E94790E2A9A0F9030
:10178000DF91CF911F910F910895CF92DF92EF9249
:10179000FF920F931F93CF93DF9300D0CDB7DEB7A7
:1017A0008C01F22E60642A981C99FECFC8014983EF
:1017B0005A830E94790E4981E42EC42E5A81D52E77
:1017C0008C2D8E198F1538F4F60161916F01C801C7
:1017D0000E94790EF5CF2A9A0F900F90DF91CF914A
:1017E0001F910F91FF90EF90DF90CF9008952A986E
:1017F0001C99FECF0E94790E2A9A0895CF93DF9309
:10180000EC01642B2A981C99FECFCE010E94790E20
:1018100060E0CE010E94790E2A9ADF91CF9108955F
:10182000AF92BF92DF92EF92FF920F931F93CF93ED
:10183000DF931F92CDB7DEB78C01F62EE22E406CFF
:101840002A981C99FECF642FC80179830E94790ED3
:10185000DF2CAF2C7981B72E8A2D8D198E1540F48F
:1018600060E0C8010E94790EF50181935F01F4CF19
:101870002A9A0F90DF91CF911F910F91FF90EF90D7
:10188000DF90BF90AF9008951F93CF93DF93EC014B
:10189000142F462F64E00E94AA0B412F65E0CE0171
:1018A000DF91CF911F910C94AA0B462F69E00C9405
:1018B000AA0B462F6AE00C94AA0BCF93DF93EC019E
:1018C000613069F06230B1F440E16DE00E94AA0B32
:1018D00047EA6EE0CE010E94AA0B42E615C042E242
:1018E0006DE00E94AA0B41EB6EE0CE010E94AA0BB4
:1018F0004BE30AC041E26DE00E94AA0B42E66EE0B3
:10190000CE010E94AA0B46E76FE0CE01DF91CF9196
:101910000C94AA0BCF93DF93EC014EE260E00E949F
:10192000AA0B4EE261E0CE010E94AA0B46E062E003
:10193000CE010E94AA0B47E063E0CE010E94AA0BF1
:101940004DE366E0CE010E94AA0B44E067E0CE01C1
:101950000E94AA0B45E068E0CE010E94AA0B47E472
:1019600065EBCE010E94440C6FEFCE010E94550C36
:1019700060E0CE010E94590C48E06BE0CE010E946D
:10198000AA0B40E06CE0CE010E94AA0B62E0CE01FF
:101990000E945D0C4AEC60E1CE010E94AA0B43E874
:1019A00061E1CE010E94AA0B43E962E1CE010E94EF
:1019B000AA0B42E263E1CE010E94AA0B48EF64E168
:1019C000CE010E94AA0B45E365E1CE010E94AA0B5D
:1019D00047E066E1CE010E94AA0B40E267E1CE013A
:1019E0000E94AA0B48E168E1CE010E94AA0B46E1E1
:1019F00069E1CE010E94AA0B4CE66AE1CE010E9489
:101A0000AA0B43E46BE1CE010E94AA0B40E46CE117
:101A1000CE010E94AA0B41E96DE1CE010E94AA0B02
:101A200047E86EE1CE010E94AA0B4BE66FE1CE01C2
:101A30000E94AA0B4BEF60E2CE010E94AA0B46E582
:101A400061E2CE010E94AA0B40E162E2CE010E9457
:101A5000AA0B49EE63E2CE010E94AA0B4AE264E2BD
:101A6000CE010E94AA0B40E065E2CE010E94AA0BC3
:101A70004FE166E2CE010E94AA0B41E467E2CE018B
:101A80000E94AA0B40E068E2CE010E94AA0B49E541
:101A900069E2CE010E94AA0B4FE76AE2CE010E94E2
:101AA000AA0B4FE36BE2CE010E94AA0B41E86CE265
:101AB000CE010E94AA0B45E36DE2CE010E94AA0B63
:101AC00049E06EE2CE010E94AA0B40EC6EE3CE012B
:101AD000DF91CF910C94AA0BCF93DF93EC012A9A5C
:101AE00085E090E00E9404072A988AE090E00E9436
:101AF00004072A9A89E290E00E9404072A981C9918
:101B0000FECF60E3CE010E94790E1C99FECF2A9A87
:101B1000CE01DF91CF910C948A0CCF93DF93EC012F
:101B20000E945A0E60E082E00E947407CE01DF91AD
:101B3000CF910C946C0DFF920F931F93CF93DF9373
:101B4000EC018B01F42E8DE3841710F48DE3F82E55
:101B500064E3CE010E94F70B40EC65E3CE010E94E6
:101B6000FE0B982F9F719D3021F08131A9F76AE318
:101B7000F0CF84EF91E00E9404074F2D6FE3CE0178
:101B80000E94AA0B2F2DA8016FE3CE010E94C50B66
:101B900065E3CE010E94F70B40EC65E3CE010E94A5
:101BA000FE0B8F718351833070F066E3CE010E948B
:101BB000F70B6BE3CE010E94F70B64E3CE010E94AA
:101BC000F70B80E01DC04A9BFECF4A99FECF000074
:101BD000198240EC6AE3CE010E94FE0B8F7751F030
:101BE0006BE3CE010E94F70B66E3CE010E94F70B78
:101BF00010E001C011E064E3CE010E94F70B812FD9
:101C0000DF91CF911F910F91FF900895FF920F9355
:101C10001F93CF93DF93EC018B016115710509F4DC
:101C200042C040EC6BE30E94FE0B982F9F7711F4AB
:101C3000F12C2BC087FDFCCF40E86FE3CE010E9462
:101C4000FE0BF82E8FEF8F0D8D3390F72F2D4FE376
:101C5000B801CE010E94100C40E86FE3CE010E9453
:101C6000FE0B87FD80958A839A819695965B9A8371
:101C700040E86FE3CE010E94FE0B982F9F779B8375
:101C8000982F991F9927991F9C8366E3CE010E9484
:101C9000F70B6AE3CE010E94F70B64E3CE010E94CA
:101CA000F70B8F2D01C080E0DF91CF911F910F9135
:101CB000FF90089561E08AE00E94AD0761E08AE04C
:101CC0000E94740761E08BE00E94740760E08CE082
:101CD0000E94740761E08DE00E94740761E08DE06E
:101CE0000E94AD0760E08BE00E94AD0780E58CBDEF
:101CF00008956EBD0DB407FEFDCF8EB50895809199
:101D0000D5029091D402891769F09F5F903508F051
:101D100090E0E92FF0E0EC57FD4F80819093D402E2
:101D200090E008958FEF9FEF08958091D502E091A4
:101D3000D4028E1751F0EF5FE03508F0E0E0F0E0FC
:101D4000EC57FD4F808190E008958FEF9FEF08954D
:101D50005091D5024091D402852F90E0242F30E09D
:101D6000541710F4805B9F4F821B930B08959B01C7
:101D7000AC01213688E138074105510530F4109255
:101D80006F001092800081E825C073E0569547955A
:101D9000379527957A95D1F7213688E1380741059F
:101DA000510530F410926F001092800082E812C04A
:101DB00065E056954795379527956A95D1F7213671
:101DC00088E1380741055105B0F510926F00109277
:101DD000800084E8809381003093DE022093DD024E
:101DE000A5E2B0E00E94131122E0969587957795C1
:101DF00067952A95D1F77093D7026093D60262E077
:101E000088E00E94740761E089E00E94AD0761E00C
:101E100089E00E9474071092DC021092D5021092A1
:101E2000D402109283021092800210927F0280E20C
:101E300086BB80936F000895909180029F5F9434D9
:101E400008F090E020917F022917E1F32FB7F89472
:101E500030918302332341F0E92FF0E0E55CFD4F40
:101E60008083909380021DC091E0909383028093C1
:101E700082021092810282E086BB80916F008260B4
:101E800080936F00809180008F73806880938000C2
:101E90008091840090918500409690938900809372
:101EA00088002FBF0895862F0E941C0F81E090E0CC
:101EB00008951F920F920FB60F9211242F933F9304
:101EC0004F935F936F937F938F939F93EF93FF93C2
:101ED0004091830250918202809188009091890004
:101EE0002091DD023091DE02709181024A3008F5C6
:101EF000820F931F493019F0652F617001C061E0B6
:101F000056954F5F671791F320918000662311F07B
:101F1000206C02C02F73206820938000909389006A
:101F200080938800609381025093820240938302E1
:101F30004CC050918002E0917F025E1319C04A307C
:101F400051F44BE040938302820F931F90938900DA
:101F5000809388003AC010928302809180008F7332
:101F60008093800080916F008D7F80936F002DC0E3
:101F7000EF5FE43408F0E0E0E0937F02F0E0E55C3E
:101F8000FD4F2081209382021092810220918000D7
:101F90002F732068209380004A3059F42091DD028D
:101FA0003091DE02280F391F30938900209388007A
:101FB00009C080918400909185004096909389009B
:101FC0008093880081E080938302FF91EF919F913D
:101FD0008F917F916F915F914F913F912F910F90D2
:101FE0000FBE0F901F901895809183028111FCCF36
:101FF00008950C94F40F1F920F920FB60F921124B4
:102000002F933F934F935F936F937F938F939F9300
:10201000AF93EF93FF93409186005091870090918A
:10202000DA0280918100992331F08F7B80938100C7
:102030001092DA0206C080648093810080E8809369
:10204000DA02E091DC02E11125C091116CC08091AF
:10205000D6029091D702840F951F90938B008093A6
:102060008A0084E086BB80916F00846080936F005B
:102070008091DD029091DE02480F591F9695879559
:10208000480F591F5093D9024093D80281E08093A2
:10209000DC0249C08091D8029091D9022091DD02E2
:1020A0003091DE02B90160957095A091DA02F0914D
:1020B000DB02481B590B6417750768F1F695FA2B7C
:1020C000820F931FEF5F421B530BE930A0F3F09395
:1020D000DB0280916F008B7F80936F008091D5022F
:1020E0008F5F803508F080E09091D402891749F025
:1020F000E82FF0E09091DB02EC57FD4F9083809346
:10210000D502809181008F7B809381001092DA024A
:102110001092DC0208C0F093DB029093D902809306
:10212000D802E093DC02FF91EF91AF919F918F91E4
:102130007F916F915F914F913F912F910F900FBEC3
:102140000F901F9018951F920F920FB60F921124A7
:102150002F938F939F93EF93FF9380916F008B7FCB
:1021600080936F00809181008F7B809381008091AC
:10217000DC022091DA0220589091DB02893020F4B1
:1021800096958F5F922BFACF9093DB028091D502C8
:102190008F5F803508F080E02091D402821739F0FB
:1021A000E82FF0E0EC57FD4F90838093D50210921A
:1021B000DC02809181008F7B809381001092DA0293
:1021C000FF91EF919F918F912F910F900FBE0F90E4
:1021D0001F9018958091D4028093D5020895CF93D3
:1021E000DF93CFE6D0E088818B7F888388818F7DE5
:1021F00088830E94EA100E94F40F88818D7F888373
:10220000DF91CF910895F8940C945511FB01DC01F6
:1022100004C08D910190801921F441505040C8F7BD
:10222000881B990B08950E944011A59F900DB49FA3
:10223000900DA49F800D911D11240895A1E21A2EE6
:10224000AA1BBB1BFD010DC0AA1FBB1FEE1FFF1F5A
:10225000A217B307E407F50720F0A21BB30BE40BAA
:10226000F50B661F771F881F991F1A9469F76095F1
:102270007095809590959B01AC01BD01CF010895AB
:10228000A29FB001B39FC001A39F700D811D1124B7
:10229000911DB29F700D811D1124911D0895EE0FA7
:1022A000FF1F0590F491E02D099412E0C6EFD2E0F3
:1022B00004C0FE010E9451112296C83FD107C9F700
:0422C000F894FFCFC0
:1022C4000000DF02200050006170705F6964783D97
:1022D400002C00555342325246006F75742033323D
:1022E4000020460D0A00434F4D4D44006F75742085
:1022F40000696E20435243206572726F720D0A00AA
:10230400696E2000696E2030202100000000003D2D
:1023140008C009E3071008F507320800000000535D
:0C2324000FC009A80E7F0E950EF90F00E7
:00000001FF
